{
  "contractName": "PatentNFT",
  "abi": [
    {
      "inputs": [
        {
          "internalType": "address",
          "name": "tokenAddress",
          "type": "address"
        }
      ],
      "stateMutability": "nonpayable",
      "type": "constructor"
    },
    {
      "inputs": [
        {
          "internalType": "address",
          "name": "sender",
          "type": "address"
        },
        {
          "internalType": "uint256",
          "name": "tokenId",
          "type": "uint256"
        },
        {
          "internalType": "address",
          "name": "owner",
          "type": "address"
        }
      ],
      "name": "ERC721IncorrectOwner",
      "type": "error"
    },
    {
      "inputs": [
        {
          "internalType": "address",
          "name": "operator",
          "type": "address"
        },
        {
          "internalType": "uint256",
          "name": "tokenId",
          "type": "uint256"
        }
      ],
      "name": "ERC721InsufficientApproval",
      "type": "error"
    },
    {
      "inputs": [
        {
          "internalType": "address",
          "name": "approver",
          "type": "address"
        }
      ],
      "name": "ERC721InvalidApprover",
      "type": "error"
    },
    {
      "inputs": [
        {
          "internalType": "address",
          "name": "operator",
          "type": "address"
        }
      ],
      "name": "ERC721InvalidOperator",
      "type": "error"
    },
    {
      "inputs": [
        {
          "internalType": "address",
          "name": "owner",
          "type": "address"
        }
      ],
      "name": "ERC721InvalidOwner",
      "type": "error"
    },
    {
      "inputs": [
        {
          "internalType": "address",
          "name": "receiver",
          "type": "address"
        }
      ],
      "name": "ERC721InvalidReceiver",
      "type": "error"
    },
    {
      "inputs": [
        {
          "internalType": "address",
          "name": "sender",
          "type": "address"
        }
      ],
      "name": "ERC721InvalidSender",
      "type": "error"
    },
    {
      "inputs": [
        {
          "internalType": "uint256",
          "name": "tokenId",
          "type": "uint256"
        }
      ],
      "name": "ERC721NonexistentToken",
      "type": "error"
    },
    {
      "anonymous": false,
      "inputs": [
        {
          "indexed": true,
          "internalType": "address",
          "name": "owner",
          "type": "address"
        },
        {
          "indexed": true,
          "internalType": "address",
          "name": "approved",
          "type": "address"
        },
        {
          "indexed": true,
          "internalType": "uint256",
          "name": "tokenId",
          "type": "uint256"
        }
      ],
      "name": "Approval",
      "type": "event"
    },
    {
      "anonymous": false,
      "inputs": [
        {
          "indexed": true,
          "internalType": "address",
          "name": "owner",
          "type": "address"
        },
        {
          "indexed": true,
          "internalType": "address",
          "name": "operator",
          "type": "address"
        },
        {
          "indexed": false,
          "internalType": "bool",
          "name": "approved",
          "type": "bool"
        }
      ],
      "name": "ApprovalForAll",
      "type": "event"
    },
    {
      "anonymous": false,
      "inputs": [
        {
          "indexed": false,
          "internalType": "uint256",
          "name": "_fromTokenId",
          "type": "uint256"
        },
        {
          "indexed": false,
          "internalType": "uint256",
          "name": "_toTokenId",
          "type": "uint256"
        }
      ],
      "name": "BatchMetadataUpdate",
      "type": "event"
    },
    {
      "anonymous": false,
      "inputs": [
        {
          "indexed": false,
          "internalType": "uint256",
          "name": "tokenId",
          "type": "uint256"
        },
        {
          "indexed": false,
          "internalType": "address",
          "name": "owner",
          "type": "address"
        },
        {
          "indexed": false,
          "internalType": "address",
          "name": "bidder",
          "type": "address"
        }
      ],
      "name": "BidRefused",
      "type": "event"
    },
    {
      "anonymous": false,
      "inputs": [
        {
          "indexed": false,
          "internalType": "uint256",
          "name": "tokenId",
          "type": "uint256"
        },
        {
          "indexed": false,
          "internalType": "address",
          "name": "owner",
          "type": "address"
        },
        {
          "indexed": false,
          "internalType": "address",
          "name": "bidder",
          "type": "address"
        }
      ],
      "name": "MakeBid",
      "type": "event"
    },
    {
      "anonymous": false,
      "inputs": [
        {
          "indexed": false,
          "internalType": "uint256",
          "name": "_tokenId",
          "type": "uint256"
        }
      ],
      "name": "MetadataUpdate",
      "type": "event"
    },
    {
      "anonymous": false,
      "inputs": [
        {
          "indexed": true,
          "internalType": "uint256",
          "name": "patentId",
          "type": "uint256"
        },
        {
          "indexed": false,
          "internalType": "address",
          "name": "from",
          "type": "address"
        },
        {
          "indexed": false,
          "internalType": "address",
          "name": "to",
          "type": "address"
        }
      ],
      "name": "PatentAssignment",
      "type": "event"
    },
    {
      "anonymous": false,
      "inputs": [
        {
          "indexed": true,
          "internalType": "uint256",
          "name": "patentId",
          "type": "uint256"
        },
        {
          "indexed": false,
          "internalType": "address",
          "name": "owner",
          "type": "address"
        }
      ],
      "name": "PatentFiled",
      "type": "event"
    },
    {
      "anonymous": false,
      "inputs": [
        {
          "indexed": true,
          "internalType": "address",
          "name": "from",
          "type": "address"
        },
        {
          "indexed": true,
          "internalType": "address",
          "name": "to",
          "type": "address"
        },
        {
          "indexed": true,
          "internalType": "uint256",
          "name": "tokenId",
          "type": "uint256"
        }
      ],
      "name": "Transfer",
      "type": "event"
    },
    {
      "inputs": [
        {
          "internalType": "address",
          "name": "to",
          "type": "address"
        },
        {
          "internalType": "uint256",
          "name": "tokenId",
          "type": "uint256"
        }
      ],
      "name": "approve",
      "outputs": [],
      "stateMutability": "nonpayable",
      "type": "function"
    },
    {
      "inputs": [
        {
          "internalType": "address",
          "name": "owner",
          "type": "address"
        }
      ],
      "name": "balanceOf",
      "outputs": [
        {
          "internalType": "uint256",
          "name": "",
          "type": "uint256"
        }
      ],
      "stateMutability": "view",
      "type": "function"
    },
    {
      "inputs": [
        {
          "internalType": "uint256",
          "name": "tokenId",
          "type": "uint256"
        }
      ],
      "name": "getApproved",
      "outputs": [
        {
          "internalType": "address",
          "name": "",
          "type": "address"
        }
      ],
      "stateMutability": "view",
      "type": "function"
    },
    {
      "inputs": [
        {
          "internalType": "address",
          "name": "owner",
          "type": "address"
        },
        {
          "internalType": "address",
          "name": "operator",
          "type": "address"
        }
      ],
      "name": "isApprovedForAll",
      "outputs": [
        {
          "internalType": "bool",
          "name": "",
          "type": "bool"
        }
      ],
      "stateMutability": "view",
      "type": "function"
    },
    {
      "inputs": [],
      "name": "name",
      "outputs": [
        {
          "internalType": "string",
          "name": "",
          "type": "string"
        }
      ],
      "stateMutability": "view",
      "type": "function"
    },
    {
      "inputs": [
        {
          "internalType": "uint256",
          "name": "tokenId",
          "type": "uint256"
        }
      ],
      "name": "ownerOf",
      "outputs": [
        {
          "internalType": "address",
          "name": "",
          "type": "address"
        }
      ],
      "stateMutability": "view",
      "type": "function"
    },
    {
      "inputs": [
        {
          "internalType": "uint256",
          "name": "",
          "type": "uint256"
        }
      ],
      "name": "patents",
      "outputs": [
        {
          "internalType": "bool",
          "name": "forSale",
          "type": "bool"
        },
        {
          "internalType": "uint256",
          "name": "price",
          "type": "uint256"
        },
        {
          "internalType": "uint256",
          "name": "timestamp",
          "type": "uint256"
        },
        {
          "internalType": "uint256",
          "name": "deadline",
          "type": "uint256"
        }
      ],
      "stateMutability": "view",
      "type": "function"
    },
    {
      "inputs": [
        {
          "internalType": "address",
          "name": "from",
          "type": "address"
        },
        {
          "internalType": "address",
          "name": "to",
          "type": "address"
        },
        {
          "internalType": "uint256",
          "name": "tokenId",
          "type": "uint256"
        }
      ],
      "name": "safeTransferFrom",
      "outputs": [],
      "stateMutability": "nonpayable",
      "type": "function"
    },
    {
      "inputs": [
        {
          "internalType": "address",
          "name": "from",
          "type": "address"
        },
        {
          "internalType": "address",
          "name": "to",
          "type": "address"
        },
        {
          "internalType": "uint256",
          "name": "tokenId",
          "type": "uint256"
        },
        {
          "internalType": "bytes",
          "name": "data",
          "type": "bytes"
        }
      ],
      "name": "safeTransferFrom",
      "outputs": [],
      "stateMutability": "nonpayable",
      "type": "function"
    },
    {
      "inputs": [
        {
          "internalType": "address",
          "name": "operator",
          "type": "address"
        },
        {
          "internalType": "bool",
          "name": "approved",
          "type": "bool"
        }
      ],
      "name": "setApprovalForAll",
      "outputs": [],
      "stateMutability": "nonpayable",
      "type": "function"
    },
    {
      "inputs": [
        {
          "internalType": "bytes4",
          "name": "interfaceId",
          "type": "bytes4"
        }
      ],
      "name": "supportsInterface",
      "outputs": [
        {
          "internalType": "bool",
          "name": "",
          "type": "bool"
        }
      ],
      "stateMutability": "view",
      "type": "function"
    },
    {
      "inputs": [],
      "name": "symbol",
      "outputs": [
        {
          "internalType": "string",
          "name": "",
          "type": "string"
        }
      ],
      "stateMutability": "view",
      "type": "function"
    },
    {
      "inputs": [],
      "name": "token",
      "outputs": [
        {
          "internalType": "contract IERC20",
          "name": "",
          "type": "address"
        }
      ],
      "stateMutability": "view",
      "type": "function"
    },
    {
      "inputs": [
        {
          "internalType": "uint256",
          "name": "tokenId",
          "type": "uint256"
        }
      ],
      "name": "tokenURI",
      "outputs": [
        {
          "internalType": "string",
          "name": "",
          "type": "string"
        }
      ],
      "stateMutability": "view",
      "type": "function"
    },
    {
      "inputs": [
        {
          "internalType": "address",
          "name": "from",
          "type": "address"
        },
        {
          "internalType": "address",
          "name": "to",
          "type": "address"
        },
        {
          "internalType": "uint256",
          "name": "tokenId",
          "type": "uint256"
        }
      ],
      "name": "transferFrom",
      "outputs": [],
      "stateMutability": "nonpayable",
      "type": "function"
    },
    {
      "inputs": [
        {
          "internalType": "string",
          "name": "_uri",
          "type": "string"
        }
      ],
      "name": "filePatent",
      "outputs": [],
      "stateMutability": "nonpayable",
      "type": "function"
    },
    {
      "inputs": [
        {
          "internalType": "uint256",
          "name": "patentId",
          "type": "uint256"
        },
        {
          "internalType": "uint256",
          "name": "price",
          "type": "uint256"
        }
      ],
      "name": "setPatentForSale",
      "outputs": [],
      "stateMutability": "nonpayable",
      "type": "function"
    },
    {
      "inputs": [
        {
          "internalType": "uint256",
          "name": "patentId",
          "type": "uint256"
        }
      ],
      "name": "setPatentNotForSale",
      "outputs": [],
      "stateMutability": "nonpayable",
      "type": "function"
    },
    {
      "inputs": [
        {
          "internalType": "uint256",
          "name": "patentId",
          "type": "uint256"
        }
      ],
      "name": "buyPatent",
      "outputs": [],
      "stateMutability": "nonpayable",
      "type": "function"
    },
    {
      "inputs": [],
      "name": "getTokenCount",
      "outputs": [
        {
          "internalType": "uint256",
          "name": "",
          "type": "uint256"
        }
      ],
      "stateMutability": "view",
      "type": "function"
    },
    {
      "inputs": [
        {
          "internalType": "uint256",
          "name": "patentId",
          "type": "uint256"
        }
      ],
      "name": "getPatentprice",
      "outputs": [
        {
          "internalType": "uint256",
          "name": "",
          "type": "uint256"
        }
      ],
      "stateMutability": "view",
      "type": "function"
    },
    {
      "inputs": [
        {
          "internalType": "uint256",
          "name": "tokenId",
          "type": "uint256"
        }
      ],
      "name": "getBids",
      "outputs": [
        {
          "components": [
            {
              "internalType": "address",
              "name": "bidder",
              "type": "address"
            },
            {
              "internalType": "uint256",
              "name": "amount",
              "type": "uint256"
            },
            {
              "internalType": "enum PatentNFT.State",
              "name": "state",
              "type": "uint8"
            }
          ],
          "internalType": "struct PatentNFT.Bid[]",
          "name": "",
          "type": "tuple[]"
        }
      ],
      "stateMutability": "nonpayable",
      "type": "function"
    },
    {
      "inputs": [
        {
          "internalType": "uint256",
          "name": "tokenId",
          "type": "uint256"
        },
        {
          "internalType": "uint256",
          "name": "indexBid",
          "type": "uint256"
        }
      ],
      "name": "rejectBid",
      "outputs": [],
      "stateMutability": "nonpayable",
      "type": "function"
    },
    {
      "inputs": [
        {
          "internalType": "uint256",
          "name": "tokenId",
          "type": "uint256"
        },
        {
          "internalType": "uint256",
          "name": "indexBid",
          "type": "uint256"
        }
      ],
      "name": "acceptBid",
      "outputs": [],
      "stateMutability": "nonpayable",
      "type": "function"
    },
    {
      "inputs": [
        {
          "internalType": "uint256",
          "name": "patentId",
          "type": "uint256"
        },
        {
          "internalType": "uint256",
          "name": "amount",
          "type": "uint256"
        }
      ],
      "name": "makeBid",
      "outputs": [],
      "stateMutability": "nonpayable",
      "type": "function"
    }
  ],
  "bytecode": "0x608060405234801562000010575f80fd5b50604051620046003803806200460083398181016040528101906200003691906200017a565b6040518060400160405280600981526020017f506174656e744e465400000000000000000000000000000000000000000000008152506040518060400160405280600581526020017f50544e4654000000000000000000000000000000000000000000000000000000815250815f9081620000b291906200040e565b508060019081620000c491906200040e565b5050508060075f6101000a81548173ffffffffffffffffffffffffffffffffffffffff021916908373ffffffffffffffffffffffffffffffffffffffff1602179055505f60088190555050620004f2565b5f80fd5b5f73ffffffffffffffffffffffffffffffffffffffff82169050919050565b5f620001448262000119565b9050919050565b620001568162000138565b811462000161575f80fd5b50565b5f8151905062000174816200014b565b92915050565b5f6020828403121562000192576200019162000115565b5b5f620001a18482850162000164565b91505092915050565b5f81519050919050565b7f4e487b71000000000000000000000000000000000000000000000000000000005f52604160045260245ffd5b7f4e487b71000000000000000000000000000000000000000000000000000000005f52602260045260245ffd5b5f60028204905060018216806200022657607f821691505b6020821081036200023c576200023b620001e1565b5b50919050565b5f819050815f5260205f209050919050565b5f6020601f8301049050919050565b5f82821b905092915050565b5f60088302620002a07fffffffffffffffffffffffffffffffffffffffffffffffffffffffffffffffff8262000263565b620002ac868362000263565b95508019841693508086168417925050509392505050565b5f819050919050565b5f819050919050565b5f620002f6620002f0620002ea84620002c4565b620002cd565b620002c4565b9050919050565b5f819050919050565b6200031183620002d6565b620003296200032082620002fd565b8484546200026f565b825550505050565b5f90565b6200033f62000331565b6200034c81848462000306565b505050565b5b818110156200037357620003675f8262000335565b60018101905062000352565b5050565b601f821115620003c2576200038c8162000242565b620003978462000254565b81016020851015620003a7578190505b620003bf620003b68562000254565b83018262000351565b50505b505050565b5f82821c905092915050565b5f620003e45f1984600802620003c7565b1980831691505092915050565b5f620003fe8383620003d3565b9150826002028217905092915050565b6200041982620001aa565b67ffffffffffffffff811115620004355762000434620001b4565b5b6200044182546200020e565b6200044e82828562000377565b5f60209050601f83116001811462000484575f84156200046f578287015190505b6200047b8582620003f1565b865550620004ea565b601f198416620004948662000242565b5f5b82811015620004bd5784890151825560018201915060208501945060208101905062000496565b86831015620004dd5784890151620004d9601f891682620003d3565b8355505b6001600288020188555050505b505050505050565b61410080620005005f395ff3fe608060405234801561000f575f80fd5b5060043610610171575f3560e01c806370a08231116100dc578063a22cb46511610095578063c87b56dd1161006f578063c87b56dd1461043f578063e985e9c51461046f578063f422bc681461049f578063fc0c546a146104d257610171565b8063a22cb465146103eb578063adfcdc1114610407578063b88d4fde1461042357610171565b806370a082311461031757806378a895671461034757806379baa9fd146103655780638a99f6fb1461038157806395d89b411461039d5780639bee1f94146103bb57610171565b806313b356ad1161012e57806313b356ad1461025b578063226e59521461027757806323b872dd1461029357806331ad661e146102af57806342842e0e146102cb5780636352211e146102e757610171565b806301ffc9a71461017557806302e9d5e4146101a557806306fdde03146101c1578063081812fc146101df578063095ea7b31461020f578063131d9a271461022b575b5f80fd5b61018f600480360381019061018a9190612bf8565b6104f0565b60405161019c9190612c3d565b60405180910390f35b6101bf60048036038101906101ba9190612c89565b610550565b005b6101c9610942565b6040516101d69190612d51565b60405180910390f35b6101f960048036038101906101f49190612d71565b6109d1565b6040516102069190612ddb565b60405180910390f35b61022960048036038101906102249190612e1e565b6109ec565b005b61024560048036038101906102409190612d71565b610a02565b6040516102529190612fd5565b60405180910390f35b61027560048036038101906102709190612d71565b610b07565b005b610291600480360381019061028c9190613121565b610d83565b005b6102ad60048036038101906102a89190613168565b610f4b565b005b6102c960048036038101906102c49190612c89565b61104a565b005b6102e560048036038101906102e09190613168565b6111bd565b005b61030160048036038101906102fc9190612d71565b6111dc565b60405161030e9190612ddb565b60405180910390f35b610331600480360381019061032c91906131b8565b6111ed565b60405161033e91906131f2565b60405180910390f35b61034f6112a3565b60405161035c91906131f2565b60405180910390f35b61037f600480360381019061037a9190612c89565b6112ac565b005b61039b60048036038101906103969190612d71565b611468565b005b6103a56115df565b6040516103b29190612d51565b60405180910390f35b6103d560048036038101906103d09190612d71565b61166f565b6040516103e291906131f2565b60405180910390f35b61040560048036038101906104009190613235565b61168c565b005b610421600480360381019061041c9190612c89565b6116a2565b005b61043d60048036038101906104389190613311565b611938565b005b61045960048036038101906104549190612d71565b611955565b6040516104669190612d51565b60405180910390f35b61048960048036038101906104849190613391565b611a60565b6040516104969190612c3d565b60405180910390f35b6104b960048036038101906104b49190612d71565b611aee565b6040516104c994939291906133cf565b60405180910390f35b6104da611b26565b6040516104e7919061346d565b60405180910390f35b5f634906490660e01b7bffffffffffffffffffffffffffffffffffffffffffffffffffffffff1916827bffffffffffffffffffffffffffffffffffffffffffffffffffffffff19161480610549575061054882611b4b565b5b9050919050565b3373ffffffffffffffffffffffffffffffffffffffff1661057083611c2c565b73ffffffffffffffffffffffffffffffffffffffff16146105c6576040517f08c379a00000000000000000000000000000000000000000000000000000000081526004016105bd906134f6565b60405180910390fd5b80600b5f8481526020019081526020015f20805490501061061c576040517f08c379a00000000000000000000000000000000000000000000000000000000081526004016106139061355e565b60405180910390fd5b5f600b5f8481526020019081526020015f2082815481106106405761063f61357c565b5b905f5260205f2090600302016040518060600160405290815f82015f9054906101000a900473ffffffffffffffffffffffffffffffffffffffff1673ffffffffffffffffffffffffffffffffffffffff1673ffffffffffffffffffffffffffffffffffffffff16815260200160018201548152602001600282015f9054906101000a900460ff1660028111156106d9576106d8612ea3565b5b60028111156106eb576106ea612ea3565b5b815250509050805f015173ffffffffffffffffffffffffffffffffffffffff1661071484611c2c565b73ffffffffffffffffffffffffffffffffffffffff160361076a576040517f08c379a0000000000000000000000000000000000000000000000000000000008152600401610761906135f3565b60405180910390fd5b806020015160075f9054906101000a900473ffffffffffffffffffffffffffffffffffffffff1673ffffffffffffffffffffffffffffffffffffffff166370a08231835f01516040518263ffffffff1660e01b81526004016107cc9190612ddb565b602060405180830381865afa1580156107e7573d5f803e3d5ffd5b505050506040513d601f19601f8201168201806040525081019061080b9190613625565b101561084c576040517f08c379a0000000000000000000000000000000000000000000000000000000008152600401610843906136c0565b60405180910390fd5b827fbc59543ce757cc7e4527a51c4c9d6e96e88a233bda92dc16607b63fd9599ade033835f01516040516108819291906136de565b60405180910390a260075f9054906101000a900473ffffffffffffffffffffffffffffffffffffffff1673ffffffffffffffffffffffffffffffffffffffff1663beabacc8825f01513384602001516040518463ffffffff1660e01b81526004016108ee93929190613705565b6020604051808303815f875af115801561090a573d5f803e3d5ffd5b505050506040513d601f19601f8201168201806040525081019061092e919061374e565b5061093d33825f0151856111bd565b505050565b60605f8054610950906137a6565b80601f016020809104026020016040519081016040528092919081815260200182805461097c906137a6565b80156109c75780601f1061099e576101008083540402835291602001916109c7565b820191905f5260205f20905b8154815290600101906020018083116109aa57829003601f168201915b5050505050905090565b5f6109db82611c65565b506109e582611ceb565b9050919050565b6109fe82826109f9611d24565b611d2b565b5050565b6060600b5f8381526020019081526020015f20805480602002602001604051908101604052809291908181526020015f905b82821015610afc578382905f5260205f2090600302016040518060600160405290815f82015f9054906101000a900473ffffffffffffffffffffffffffffffffffffffff1673ffffffffffffffffffffffffffffffffffffffff1673ffffffffffffffffffffffffffffffffffffffff16815260200160018201548152602001600282015f9054906101000a900460ff166002811115610ad757610ad6612ea3565b5b6002811115610ae957610ae8612ea3565b5b8152505081526020019060010190610a34565b505050509050919050565b5f73ffffffffffffffffffffffffffffffffffffffff16610b2782611c2c565b73ffffffffffffffffffffffffffffffffffffffff1603610b7d576040517f08c379a0000000000000000000000000000000000000000000000000000000008152600401610b7490613820565b60405180910390fd5b60095f8281526020019081526020015f205f015f9054906101000a900460ff16610bdc576040517f08c379a0000000000000000000000000000000000000000000000000000000008152600401610bd390613888565b60405180910390fd5b60095f8281526020019081526020015f20600301544210610c32576040517f08c379a0000000000000000000000000000000000000000000000000000000008152600401610c29906138f0565b60405180910390fd5b60075f9054906101000a900473ffffffffffffffffffffffffffffffffffffffff1673ffffffffffffffffffffffffffffffffffffffff1663beabacc833610c7984611c2c565b60095f8681526020019081526020015f20600101546040518463ffffffff1660e01b8152600401610cac93929190613705565b6020604051808303815f875af1158015610cc8573d5f803e3d5ffd5b505050506040513d601f19601f82011682018060405250810190610cec919061374e565b610d2b576040517f08c379a0000000000000000000000000000000000000000000000000000000008152600401610d229061397e565b60405180910390fd5b807fbc59543ce757cc7e4527a51c4c9d6e96e88a233bda92dc16607b63fd9599ade0610d5683611c2c565b33604051610d659291906136de565b60405180910390a2610d80610d7982611c2c565b3383611d3d565b50565b60075f9054906101000a900473ffffffffffffffffffffffffffffffffffffffff1673ffffffffffffffffffffffffffffffffffffffff16637f5db3e8336040518263ffffffff1660e01b8152600401610ddd9190612ddb565b6020604051808303815f875af1158015610df9573d5f803e3d5ffd5b505050506040513d601f19601f82011682018060405250810190610e1d919061374e565b610e5c576040517f08c379a0000000000000000000000000000000000000000000000000000000008152600401610e53906139e6565b60405180910390fd5b60405180608001604052805f151581526020015f8152602001428152602001632598060042610e8b9190613a31565b81525060095f60085481526020019081526020015f205f820151815f015f6101000a81548160ff021916908315150217905550602082015181600101556040820151816002015560608201518160030155905050610eeb33600854611ea5565b610ef760085482611ec2565b6008547fe035201264bc301f014898837139831792b61fd25d2a44511eaa8bac73575e8a33604051610f299190612ddb565b60405180910390a260085f815480929190610f4390613a64565b919050555050565b5f73ffffffffffffffffffffffffffffffffffffffff168273ffffffffffffffffffffffffffffffffffffffff1603610fbb575f6040517f64a0ae92000000000000000000000000000000000000000000000000000000008152600401610fb29190612ddb565b60405180910390fd5b5f610fce8383610fc9611d24565b611f1c565b90508373ffffffffffffffffffffffffffffffffffffffff168173ffffffffffffffffffffffffffffffffffffffff1614611044578382826040517f64283d7b00000000000000000000000000000000000000000000000000000000815260040161103b93929190613aab565b60405180910390fd5b50505050565b3373ffffffffffffffffffffffffffffffffffffffff1661106a83611c2c565b73ffffffffffffffffffffffffffffffffffffffff16146110c0576040517f08c379a00000000000000000000000000000000000000000000000000000000081526004016110b7906134f6565b60405180910390fd5b60095f8381526020019081526020015f20600301544210611116576040517f08c379a000000000000000000000000000000000000000000000000000000000815260040161110d906138f0565b60405180910390fd5b60095f8381526020019081526020015f205f015f9054906101000a900460ff16611175576040517f08c379a000000000000000000000000000000000000000000000000000000000815260040161116c90613b2a565b60405180910390fd5b8060095f8481526020019081526020015f2060010181905550600160095f8481526020019081526020015f205f015f6101000a81548160ff0219169083151502179055505050565b6111d783838360405180602001604052805f815250611938565b505050565b5f6111e682611c65565b9050919050565b5f8073ffffffffffffffffffffffffffffffffffffffff168273ffffffffffffffffffffffffffffffffffffffff160361125e575f6040517f89c62b640000000000000000000000000000000000000000000000000000000081526004016112559190612ddb565b60405180910390fd5b60035f8373ffffffffffffffffffffffffffffffffffffffff1673ffffffffffffffffffffffffffffffffffffffff1681526020019081526020015f20549050919050565b5f600854905090565b3373ffffffffffffffffffffffffffffffffffffffff166112cc83611c2c565b73ffffffffffffffffffffffffffffffffffffffff1614611322576040517f08c379a0000000000000000000000000000000000000000000000000000000008152600401611319906134f6565b60405180910390fd5b80600b5f8481526020019081526020015f208054905010611378576040517f08c379a000000000000000000000000000000000000000000000000000000000815260040161136f9061355e565b60405180910390fd5b5f600b5f8481526020019081526020015f20828154811061139c5761139b61357c565b5b905f5260205f2090600302016002015f6101000a81548160ff021916908360028111156113cc576113cb612ea3565b5b02179055507fbc154f7987a14b2fa030a8c69aea4ee9febfd621cc40bb12817668a9c3d6b96f826113fc84611c2c565b600b5f8681526020019081526020015f20848154811061141f5761141e61357c565b5b905f5260205f2090600302015f015f9054906101000a900473ffffffffffffffffffffffffffffffffffffffff1660405161145c93929190613b48565b60405180910390a15050565b3373ffffffffffffffffffffffffffffffffffffffff1661148882611c2c565b73ffffffffffffffffffffffffffffffffffffffff16146114de576040517f08c379a00000000000000000000000000000000000000000000000000000000081526004016114d5906134f6565b60405180910390fd5b60095f8281526020019081526020015f20600301544210611534576040517f08c379a000000000000000000000000000000000000000000000000000000000815260040161152b906138f0565b60405180910390fd5b5f151560095f8381526020019081526020015f205f015f9054906101000a900460ff16151514611599576040517f08c379a000000000000000000000000000000000000000000000000000000000815260040161159090613bc7565b60405180910390fd5b5f60095f8381526020019081526020015f20600101819055505f60095f8381526020019081526020015f205f015f6101000a81548160ff02191690831515021790555050565b6060600180546115ee906137a6565b80601f016020809104026020016040519081016040528092919081815260200182805461161a906137a6565b80156116655780601f1061163c57610100808354040283529160200191611665565b820191905f5260205f20905b81548152906001019060200180831161164857829003601f168201915b5050505050905090565b5f60095f8381526020019081526020015f20600101549050919050565b61169e611697611d24565b8383612127565b5050565b6116ab82611c2c565b73ffffffffffffffffffffffffffffffffffffffff163373ffffffffffffffffffffffffffffffffffffffff1603611718576040517f08c379a000000000000000000000000000000000000000000000000000000000815260040161170f90613c55565b60405180910390fd5b8060075f9054906101000a900473ffffffffffffffffffffffffffffffffffffffff1673ffffffffffffffffffffffffffffffffffffffff166370a08231336040518263ffffffff1660e01b81526004016117739190612ddb565b602060405180830381865afa15801561178e573d5f803e3d5ffd5b505050506040513d601f19601f820116820180604052508101906117b29190613625565b10156117f3576040517f08c379a00000000000000000000000000000000000000000000000000000000081526004016117ea90613cbd565b60405180910390fd5b5f60405180606001604052803373ffffffffffffffffffffffffffffffffffffffff16815260200183815260200160028081111561183457611833612ea3565b5b8152509050600b5f8481526020019081526020015f2081908060018154018082558091505060019003905f5260205f2090600302015f909190919091505f820151815f015f6101000a81548173ffffffffffffffffffffffffffffffffffffffff021916908373ffffffffffffffffffffffffffffffffffffffff160217905550602082015181600101556040820151816002015f6101000a81548160ff021916908360028111156118e9576118e8612ea3565b5b021790555050507f4d0cbbf5e8ec1f02fd982d9a636d913a35d38e85d10199d578e4c105aebd282b8361191b856111dc565b3360405161192b93929190613b48565b60405180910390a1505050565b611943848484610f4b565b61194f84848484612290565b50505050565b606061196082611c65565b505f60065f8481526020019081526020015f20805461197e906137a6565b80601f01602080910402602001604051908101604052809291908181526020018280546119aa906137a6565b80156119f55780601f106119cc576101008083540402835291602001916119f5565b820191905f5260205f20905b8154815290600101906020018083116119d857829003601f168201915b505050505090505f611a05612442565b90505f815103611a19578192505050611a5b565b5f82511115611a4d578082604051602001611a35929190613d15565b60405160208183030381529060405292505050611a5b565b611a5684612458565b925050505b919050565b5f60055f8473ffffffffffffffffffffffffffffffffffffffff1673ffffffffffffffffffffffffffffffffffffffff1681526020019081526020015f205f8373ffffffffffffffffffffffffffffffffffffffff1673ffffffffffffffffffffffffffffffffffffffff1681526020019081526020015f205f9054906101000a900460ff16905092915050565b6009602052805f5260405f205f91509050805f015f9054906101000a900460ff16908060010154908060020154908060030154905084565b60075f9054906101000a900473ffffffffffffffffffffffffffffffffffffffff1681565b5f7f80ac58cd000000000000000000000000000000000000000000000000000000007bffffffffffffffffffffffffffffffffffffffffffffffffffffffff1916827bffffffffffffffffffffffffffffffffffffffffffffffffffffffff19161480611c1557507f5b5e139f000000000000000000000000000000000000000000000000000000007bffffffffffffffffffffffffffffffffffffffffffffffffffffffff1916827bffffffffffffffffffffffffffffffffffffffffffffffffffffffff1916145b80611c255750611c24826124be565b5b9050919050565b5f60025f8381526020019081526020015f205f9054906101000a900473ffffffffffffffffffffffffffffffffffffffff169050919050565b5f80611c7083611c2c565b90505f73ffffffffffffffffffffffffffffffffffffffff168173ffffffffffffffffffffffffffffffffffffffff1603611ce257826040517f7e273289000000000000000000000000000000000000000000000000000000008152600401611cd991906131f2565b60405180910390fd5b80915050919050565b5f60045f8381526020019081526020015f205f9054906101000a900473ffffffffffffffffffffffffffffffffffffffff169050919050565b5f33905090565b611d388383836001612527565b505050565b5f73ffffffffffffffffffffffffffffffffffffffff168273ffffffffffffffffffffffffffffffffffffffff1603611dad575f6040517f64a0ae92000000000000000000000000000000000000000000000000000000008152600401611da49190612ddb565b60405180910390fd5b5f611db983835f611f1c565b90505f73ffffffffffffffffffffffffffffffffffffffff168173ffffffffffffffffffffffffffffffffffffffff1603611e2b57816040517f7e273289000000000000000000000000000000000000000000000000000000008152600401611e2291906131f2565b60405180910390fd5b8373ffffffffffffffffffffffffffffffffffffffff168173ffffffffffffffffffffffffffffffffffffffff1614611e9f578382826040517f64283d7b000000000000000000000000000000000000000000000000000000008152600401611e9693929190613aab565b60405180910390fd5b50505050565b611ebe828260405180602001604052805f8152506126e6565b5050565b8060065f8481526020019081526020015f209081611ee09190613ecc565b507ff8e1a15aba9398e019f0b49df1a4fde98ee17ae345cb5f6b5e2c27f5033e8ce782604051611f1091906131f2565b60405180910390a15050565b5f80611f2784611c2c565b90505f73ffffffffffffffffffffffffffffffffffffffff168373ffffffffffffffffffffffffffffffffffffffff1614611f6857611f67818486612701565b5b5f73ffffffffffffffffffffffffffffffffffffffff168173ffffffffffffffffffffffffffffffffffffffff1614611ff357611fa75f855f80612527565b600160035f8373ffffffffffffffffffffffffffffffffffffffff1673ffffffffffffffffffffffffffffffffffffffff1681526020019081526020015f205f82825403925050819055505b5f73ffffffffffffffffffffffffffffffffffffffff168573ffffffffffffffffffffffffffffffffffffffff161461207257600160035f8773ffffffffffffffffffffffffffffffffffffffff1673ffffffffffffffffffffffffffffffffffffffff1681526020019081526020015f205f82825401925050819055505b8460025f8681526020019081526020015f205f6101000a81548173ffffffffffffffffffffffffffffffffffffffff021916908373ffffffffffffffffffffffffffffffffffffffff160217905550838573ffffffffffffffffffffffffffffffffffffffff168273ffffffffffffffffffffffffffffffffffffffff167fddf252ad1be2c89b69c2b068fc378daa952ba7f163c4a11628f55a4df523b3ef60405160405180910390a4809150509392505050565b5f73ffffffffffffffffffffffffffffffffffffffff168273ffffffffffffffffffffffffffffffffffffffff160361219757816040517f5b08ba1800000000000000000000000000000000000000000000000000000000815260040161218e9190612ddb565b60405180910390fd5b8060055f8573ffffffffffffffffffffffffffffffffffffffff1673ffffffffffffffffffffffffffffffffffffffff1681526020019081526020015f205f8473ffffffffffffffffffffffffffffffffffffffff1673ffffffffffffffffffffffffffffffffffffffff1681526020019081526020015f205f6101000a81548160ff0219169083151502179055508173ffffffffffffffffffffffffffffffffffffffff168373ffffffffffffffffffffffffffffffffffffffff167f17307eab39ab6107e8899845ad3d59bd9653f200f220920489ca2b5937696c31836040516122839190612c3d565b60405180910390a3505050565b5f8373ffffffffffffffffffffffffffffffffffffffff163b111561243c578273ffffffffffffffffffffffffffffffffffffffff1663150b7a026122d3611d24565b8685856040518563ffffffff1660e01b81526004016122f59493929190613fed565b6020604051808303815f875af192505050801561233057506040513d601f19601f8201168201806040525081019061232d919061404b565b60015b6123b1573d805f811461235e576040519150601f19603f3d011682016040523d82523d5f602084013e612363565b606091505b505f8151036123a957836040517f64a0ae920000000000000000000000000000000000000000000000000000000081526004016123a09190612ddb565b60405180910390fd5b805181602001fd5b63150b7a0260e01b7bffffffffffffffffffffffffffffffffffffffffffffffffffffffff1916817bffffffffffffffffffffffffffffffffffffffffffffffffffffffff19161461243a57836040517f64a0ae920000000000000000000000000000000000000000000000000000000081526004016124319190612ddb565b60405180910390fd5b505b50505050565b606060405180602001604052805f815250905090565b606061246382611c65565b505f61246d612442565b90505f81511161248b5760405180602001604052805f8152506124b6565b80612495846127c4565b6040516020016124a6929190613d15565b6040516020818303038152906040525b915050919050565b5f7f01ffc9a7000000000000000000000000000000000000000000000000000000007bffffffffffffffffffffffffffffffffffffffffffffffffffffffff1916827bffffffffffffffffffffffffffffffffffffffffffffffffffffffff1916149050919050565b808061255f57505f73ffffffffffffffffffffffffffffffffffffffff168273ffffffffffffffffffffffffffffffffffffffff1614155b15612691575f61256e84611c65565b90505f73ffffffffffffffffffffffffffffffffffffffff168373ffffffffffffffffffffffffffffffffffffffff16141580156125d857508273ffffffffffffffffffffffffffffffffffffffff168173ffffffffffffffffffffffffffffffffffffffff1614155b80156125eb57506125e98184611a60565b155b1561262d57826040517fa9fbf51f0000000000000000000000000000000000000000000000000000000081526004016126249190612ddb565b60405180910390fd5b811561268f57838573ffffffffffffffffffffffffffffffffffffffff168273ffffffffffffffffffffffffffffffffffffffff167f8c5be1e5ebec7d5bd14f71427d1e84f3dd0314c0f7b2291e5b200ac8c7c3b92560405160405180910390a45b505b8360045f8581526020019081526020015f205f6101000a81548173ffffffffffffffffffffffffffffffffffffffff021916908373ffffffffffffffffffffffffffffffffffffffff16021790555050505050565b6126f0838361288e565b6126fc5f848484612290565b505050565b61270c838383612981565b6127bf575f73ffffffffffffffffffffffffffffffffffffffff168373ffffffffffffffffffffffffffffffffffffffff160361278057806040517f7e27328900000000000000000000000000000000000000000000000000000000815260040161277791906131f2565b60405180910390fd5b81816040517f177e802f0000000000000000000000000000000000000000000000000000000081526004016127b6929190614076565b60405180910390fd5b505050565b60605f60016127d284612a41565b0190505f8167ffffffffffffffff8111156127f0576127ef612ffd565b5b6040519080825280601f01601f1916602001820160405280156128225781602001600182028036833780820191505090505b5090505f82602001820190505b600115612883578080600190039150507f3031323334353637383961626364656600000000000000000000000000000000600a86061a8153600a85816128785761287761409d565b5b0494505f850361282f575b819350505050919050565b5f73ffffffffffffffffffffffffffffffffffffffff168273ffffffffffffffffffffffffffffffffffffffff16036128fe575f6040517f64a0ae920000000000000000000000000000000000000000000000000000000081526004016128f59190612ddb565b60405180910390fd5b5f61290a83835f611f1c565b90505f73ffffffffffffffffffffffffffffffffffffffff168173ffffffffffffffffffffffffffffffffffffffff161461297c575f6040517f73c6ac6e0000000000000000000000000000000000000000000000000000000081526004016129739190612ddb565b60405180910390fd5b505050565b5f8073ffffffffffffffffffffffffffffffffffffffff168373ffffffffffffffffffffffffffffffffffffffff1614158015612a3857508273ffffffffffffffffffffffffffffffffffffffff168473ffffffffffffffffffffffffffffffffffffffff1614806129f957506129f88484611a60565b5b80612a3757508273ffffffffffffffffffffffffffffffffffffffff16612a1f83611ceb565b73ffffffffffffffffffffffffffffffffffffffff16145b5b90509392505050565b5f805f90507a184f03e93ff9f4daa797ed6e38ed64bf6a1f0100000000000000008310612a9d577a184f03e93ff9f4daa797ed6e38ed64bf6a1f0100000000000000008381612a9357612a9261409d565b5b0492506040810190505b6d04ee2d6d415b85acef81000000008310612ada576d04ee2d6d415b85acef81000000008381612ad057612acf61409d565b5b0492506020810190505b662386f26fc100008310612b0957662386f26fc100008381612aff57612afe61409d565b5b0492506010810190505b6305f5e1008310612b32576305f5e1008381612b2857612b2761409d565b5b0492506008810190505b6127108310612b57576127108381612b4d57612b4c61409d565b5b0492506004810190505b60648310612b7a5760648381612b7057612b6f61409d565b5b0492506002810190505b600a8310612b89576001810190505b80915050919050565b5f604051905090565b5f80fd5b5f80fd5b5f7fffffffff0000000000000000000000000000000000000000000000000000000082169050919050565b612bd781612ba3565b8114612be1575f80fd5b50565b5f81359050612bf281612bce565b92915050565b5f60208284031215612c0d57612c0c612b9b565b5b5f612c1a84828501612be4565b91505092915050565b5f8115159050919050565b612c3781612c23565b82525050565b5f602082019050612c505f830184612c2e565b92915050565b5f819050919050565b612c6881612c56565b8114612c72575f80fd5b50565b5f81359050612c8381612c5f565b92915050565b5f8060408385031215612c9f57612c9e612b9b565b5b5f612cac85828601612c75565b9250506020612cbd85828601612c75565b9150509250929050565b5f81519050919050565b5f82825260208201905092915050565b5f5b83811015612cfe578082015181840152602081019050612ce3565b5f8484015250505050565b5f601f19601f8301169050919050565b5f612d2382612cc7565b612d2d8185612cd1565b9350612d3d818560208601612ce1565b612d4681612d09565b840191505092915050565b5f6020820190508181035f830152612d698184612d19565b905092915050565b5f60208284031215612d8657612d85612b9b565b5b5f612d9384828501612c75565b91505092915050565b5f73ffffffffffffffffffffffffffffffffffffffff82169050919050565b5f612dc582612d9c565b9050919050565b612dd581612dbb565b82525050565b5f602082019050612dee5f830184612dcc565b92915050565b612dfd81612dbb565b8114612e07575f80fd5b50565b5f81359050612e1881612df4565b92915050565b5f8060408385031215612e3457612e33612b9b565b5b5f612e4185828601612e0a565b9250506020612e5285828601612c75565b9150509250929050565b5f81519050919050565b5f82825260208201905092915050565b5f819050602082019050919050565b612e8e81612dbb565b82525050565b612e9d81612c56565b82525050565b7f4e487b71000000000000000000000000000000000000000000000000000000005f52602160045260245ffd5b60038110612ee157612ee0612ea3565b5b50565b5f819050612ef182612ed0565b919050565b5f612f0082612ee4565b9050919050565b612f1081612ef6565b82525050565b606082015f820151612f2a5f850182612e85565b506020820151612f3d6020850182612e94565b506040820151612f506040850182612f07565b50505050565b5f612f618383612f16565b60608301905092915050565b5f602082019050919050565b5f612f8382612e5c565b612f8d8185612e66565b9350612f9883612e76565b805f5b83811015612fc8578151612faf8882612f56565b9750612fba83612f6d565b925050600181019050612f9b565b5085935050505092915050565b5f6020820190508181035f830152612fed8184612f79565b905092915050565b5f80fd5b5f80fd5b7f4e487b71000000000000000000000000000000000000000000000000000000005f52604160045260245ffd5b61303382612d09565b810181811067ffffffffffffffff8211171561305257613051612ffd565b5b80604052505050565b5f613064612b92565b9050613070828261302a565b919050565b5f67ffffffffffffffff82111561308f5761308e612ffd565b5b61309882612d09565b9050602081019050919050565b828183375f83830152505050565b5f6130c56130c084613075565b61305b565b9050828152602081018484840111156130e1576130e0612ff9565b5b6130ec8482856130a5565b509392505050565b5f82601f83011261310857613107612ff5565b5b81356131188482602086016130b3565b91505092915050565b5f6020828403121561313657613135612b9b565b5b5f82013567ffffffffffffffff81111561315357613152612b9f565b5b61315f848285016130f4565b91505092915050565b5f805f6060848603121561317f5761317e612b9b565b5b5f61318c86828701612e0a565b935050602061319d86828701612e0a565b92505060406131ae86828701612c75565b9150509250925092565b5f602082840312156131cd576131cc612b9b565b5b5f6131da84828501612e0a565b91505092915050565b6131ec81612c56565b82525050565b5f6020820190506132055f8301846131e3565b92915050565b61321481612c23565b811461321e575f80fd5b50565b5f8135905061322f8161320b565b92915050565b5f806040838503121561324b5761324a612b9b565b5b5f61325885828601612e0a565b925050602061326985828601613221565b9150509250929050565b5f67ffffffffffffffff82111561328d5761328c612ffd565b5b61329682612d09565b9050602081019050919050565b5f6132b56132b084613273565b61305b565b9050828152602081018484840111156132d1576132d0612ff9565b5b6132dc8482856130a5565b509392505050565b5f82601f8301126132f8576132f7612ff5565b5b81356133088482602086016132a3565b91505092915050565b5f805f806080858703121561332957613328612b9b565b5b5f61333687828801612e0a565b945050602061334787828801612e0a565b935050604061335887828801612c75565b925050606085013567ffffffffffffffff81111561337957613378612b9f565b5b613385878288016132e4565b91505092959194509250565b5f80604083850312156133a7576133a6612b9b565b5b5f6133b485828601612e0a565b92505060206133c585828601612e0a565b9150509250929050565b5f6080820190506133e25f830187612c2e565b6133ef60208301866131e3565b6133fc60408301856131e3565b61340960608301846131e3565b95945050505050565b5f819050919050565b5f61343561343061342b84612d9c565b613412565b612d9c565b9050919050565b5f6134468261341b565b9050919050565b5f6134578261343c565b9050919050565b6134678161344d565b82525050565b5f6020820190506134805f83018461345e565b92915050565b7f596f7520617265206e6f7420746865206f776e6572206f6620746865207061745f8201527f656e740000000000000000000000000000000000000000000000000000000000602082015250565b5f6134e0602383612cd1565b91506134eb82613486565b604082019050919050565b5f6020820190508181035f83015261350d816134d4565b9050919050565b7f496e646578206f7574206f662072616e676500000000000000000000000000005f82015250565b5f613548601283612cd1565b915061355382613514565b602082019050919050565b5f6020820190508181035f8301526135758161353c565b9050919050565b7f4e487b71000000000000000000000000000000000000000000000000000000005f52603260045260245ffd5b7f596f752063616e206e6f742061636365707420796f75722062696473000000005f82015250565b5f6135dd601c83612cd1565b91506135e8826135a9565b602082019050919050565b5f6020820190508181035f83015261360a816135d1565b9050919050565b5f8151905061361f81612c5f565b92915050565b5f6020828403121561363a57613639612b9b565b5b5f61364784828501613611565b91505092915050565b7f5468652062696464657220646f6573206e6f74206861766520656e6f756768205f8201527f50544e5400000000000000000000000000000000000000000000000000000000602082015250565b5f6136aa602483612cd1565b91506136b582613650565b604082019050919050565b5f6020820190508181035f8301526136d78161369e565b9050919050565b5f6040820190506136f15f830185612dcc565b6136fe6020830184612dcc565b9392505050565b5f6060820190506137185f830186612dcc565b6137256020830185612dcc565b61373260408301846131e3565b949350505050565b5f815190506137488161320b565b92915050565b5f6020828403121561376357613762612b9b565b5b5f6137708482850161373a565b91505092915050565b7f4e487b71000000000000000000000000000000000000000000000000000000005f52602260045260245ffd5b5f60028204905060018216806137bd57607f821691505b6020821081036137d0576137cf613779565b5b50919050565b7f54686520706174656e7420646f6573206e6f74206578697374000000000000005f82015250565b5f61380a601983612cd1565b9150613815826137d6565b602082019050919050565b5f6020820190508181035f830152613837816137fe565b9050919050565b7f54686520706174656e74206973206e6f7420696e2073616c65000000000000005f82015250565b5f613872601983612cd1565b915061387d8261383e565b602082019050919050565b5f6020820190508181035f83015261389f81613866565b9050919050565b7f54686520706174656e74206861732065787069726564000000000000000000005f82015250565b5f6138da601683612cd1565b91506138e5826138a6565b602082019050919050565b5f6020820190508181035f830152613907816138ce565b9050919050565b7f596f752068617665206e6f7420656e6f7567682050544e5420746f20627579205f8201527f74686520706174656e7400000000000000000000000000000000000000000000602082015250565b5f613968602a83612cd1565b91506139738261390e565b604082019050919050565b5f6020820190508181035f8301526139958161395c565b9050919050565b7f46696c696e6720666565207061796d656e74206661696c6564000000000000005f82015250565b5f6139d0601983612cd1565b91506139db8261399c565b602082019050919050565b5f6020820190508181035f8301526139fd816139c4565b9050919050565b7f4e487b71000000000000000000000000000000000000000000000000000000005f52601160045260245ffd5b5f613a3b82612c56565b9150613a4683612c56565b9250828201905080821115613a5e57613a5d613a04565b5b92915050565b5f613a6e82612c56565b91507fffffffffffffffffffffffffffffffffffffffffffffffffffffffffffffffff8203613aa057613a9f613a04565b5b600182019050919050565b5f606082019050613abe5f830186612dcc565b613acb60208301856131e3565b613ad86040830184612dcc565b949350505050565b7f506174656e7420616c726561647920757020666f722073616c650000000000005f82015250565b5f613b14601a83612cd1565b9150613b1f82613ae0565b602082019050919050565b5f6020820190508181035f830152613b4181613b08565b9050919050565b5f606082019050613b5b5f8301866131e3565b613b686020830185612dcc565b613b756040830184612dcc565b949350505050565b7f506174656e7420616c7265616479206e6f7420757020666f722073616c6500005f82015250565b5f613bb1601e83612cd1565b9150613bbc82613b7d565b602082019050919050565b5f6020820190508181035f830152613bde81613ba5565b9050919050565b7f596f752061726520616c726561647920746865206f776e6572206f66207468655f8201527f20706174656e7400000000000000000000000000000000000000000000000000602082015250565b5f613c3f602783612cd1565b9150613c4a82613be5565b604082019050919050565b5f6020820190508181035f830152613c6c81613c33565b9050919050565b7f596f7520646f206e6f74206861766520656e6f7567682050544e5400000000005f82015250565b5f613ca7601b83612cd1565b9150613cb282613c73565b602082019050919050565b5f6020820190508181035f830152613cd481613c9b565b9050919050565b5f81905092915050565b5f613cef82612cc7565b613cf98185613cdb565b9350613d09818560208601612ce1565b80840191505092915050565b5f613d208285613ce5565b9150613d2c8284613ce5565b91508190509392505050565b5f819050815f5260205f209050919050565b5f6020601f8301049050919050565b5f82821b905092915050565b5f60088302613d947fffffffffffffffffffffffffffffffffffffffffffffffffffffffffffffffff82613d59565b613d9e8683613d59565b95508019841693508086168417925050509392505050565b5f613dd0613dcb613dc684612c56565b613412565b612c56565b9050919050565b5f819050919050565b613de983613db6565b613dfd613df582613dd7565b848454613d65565b825550505050565b5f90565b613e11613e05565b613e1c818484613de0565b505050565b5b81811015613e3f57613e345f82613e09565b600181019050613e22565b5050565b601f821115613e8457613e5581613d38565b613e5e84613d4a565b81016020851015613e6d578190505b613e81613e7985613d4a565b830182613e21565b50505b505050565b5f82821c905092915050565b5f613ea45f1984600802613e89565b1980831691505092915050565b5f613ebc8383613e95565b9150826002028217905092915050565b613ed582612cc7565b67ffffffffffffffff811115613eee57613eed612ffd565b5b613ef882546137a6565b613f03828285613e43565b5f60209050601f831160018114613f34575f8415613f22578287015190505b613f2c8582613eb1565b865550613f93565b601f198416613f4286613d38565b5f5b82811015613f6957848901518255600182019150602085019450602081019050613f44565b86831015613f865784890151613f82601f891682613e95565b8355505b6001600288020188555050505b505050505050565b5f81519050919050565b5f82825260208201905092915050565b5f613fbf82613f9b565b613fc98185613fa5565b9350613fd9818560208601612ce1565b613fe281612d09565b840191505092915050565b5f6080820190506140005f830187612dcc565b61400d6020830186612dcc565b61401a60408301856131e3565b818103606083015261402c8184613fb5565b905095945050505050565b5f8151905061404581612bce565b92915050565b5f602082840312156140605761405f612b9b565b5b5f61406d84828501614037565b91505092915050565b5f6040820190506140895f830185612dcc565b61409660208301846131e3565b9392505050565b7f4e487b71000000000000000000000000000000000000000000000000000000005f52601260045260245ffdfea2646970667358221220222718c6672addd457dabfc03a311da44e30f1659c3483b3ff6f3ee3d376330b64736f6c63430008140033",
  "immutableReferences": {},
  "source": "// SPDX-License-Identifier: MIT\r\npragma solidity ^0.8.19;\r\n\r\nimport \"@openzeppelin/contracts/token/ERC721/extensions/ERC721URIStorage.sol\";\r\n\r\n\r\ninterface IERC20{\r\n    function transfer(address from, address to, uint amount) external returns (bool);\r\n    function balanceOf(address account) external view returns(uint);\r\n    function payFilingFee(address sender) external returns(bool);\r\n}\r\n\r\n\r\n/// @title PatentNFT contract\r\n/// @author Carolina Proietti, Edoardo Giuggioloni, Paolo Marchignoli, Ruben Seror \r\n/// @notice You can use this contract to file patent, buy and sell associated NFTs\r\ncontract PatentNFT is ERC721URIStorage{\r\n\r\n    // Struttura dei brevetti\r\n    struct Patent {\r\n        bool forSale; //brevetto in vendita (s/n)\r\n        uint price; //prezzo brevetto (0 se non  in vendita)\r\n        uint timestamp;//data deposito brevetto\r\n        uint deadline;//scadenza brevetto\r\n    }\r\n\r\n    enum State {Refused, Accepted, Pending}\r\n\r\n    struct Bid{\r\n        address bidder;\r\n        uint amount;\r\n        State state;\r\n    }\r\n\r\n    IERC20 public token;\r\n    uint private patentCounter;\r\n    mapping(uint => Patent) public patents;\r\n    uint filingPrice;\r\n    mapping(uint => Bid[]) bids;\r\n\r\n    //evento deposito\r\n    event PatentFiled(uint indexed patentId, address owner);\r\n    //evento cessione\r\n    event PatentAssignment(uint indexed patentId, address from, address to);\r\n    //evento offerta rifiutata\r\n    event BidRefused(uint tokenId, address owner, address bidder);\r\n    //evento offerta\r\n    event MakeBid(uint tokenId, address owner, address bidder);\r\n\r\n    constructor(address tokenAddress) ERC721(\"PatentNFT\",\"PTNFT\"){\r\n        token = IERC20(tokenAddress);\r\n        patentCounter = 0;\r\n    }\r\n\r\n    ///@notice method that allow user to file their patents\r\n    ///@param _uri URI of the filed Patent in IPFS\r\n    function filePatent(string memory _uri) public{\r\n        require(token.payFilingFee(msg.sender),'Filing fee payment failed');\r\n        patents[patentCounter] = Patent({ \r\n            forSale: false, \r\n            price:0,\r\n            timestamp: block.timestamp,\r\n            deadline: block.timestamp + (20 * 365 days)});\r\n        _safeMint(msg.sender, patentCounter);\r\n        _setTokenURI(patentCounter, _uri);\r\n        emit PatentFiled(patentCounter, msg.sender);\r\n        patentCounter++;\r\n    }\r\n    ///@notice user can put the patent up for sale\r\n    ///@param patentId nft id of the patent\r\n    function setPatentForSale(uint patentId, uint price) public {\r\n        require(_ownerOf(patentId) == msg.sender,'You are not the owner of the patent');\r\n        require(block.timestamp < patents[patentId].deadline,'The patent has expired');\r\n        require(patents[patentId].forSale, 'Patent already up for sale');\r\n        patents[patentId].price = price;\r\n        patents[patentId].forSale = true;\r\n    }\r\n\r\n    ///@notice user can remove the patent from sale\r\n    ///@param patentId nft id of the patent\r\n    function setPatentNotForSale(uint patentId) public {\r\n        require(_ownerOf(patentId) == msg.sender,'You are not the owner of the patent');\r\n        require(block.timestamp < patents[patentId].deadline,'The patent has expired');\r\n        require(patents[patentId].forSale == false, 'Patent already not up for sale');\r\n        patents[patentId].price = 0;\r\n        patents[patentId].forSale = false;    \r\n    }\r\n\r\n    function buyPatent(uint patentId) public {\r\n        require(_ownerOf(patentId) != address(0),'The patent does not exist');\r\n        require(patents[patentId].forSale,'The patent is not in sale');\r\n        require(block.timestamp < patents[patentId].deadline,'The patent has expired');\r\n        require(token.transfer(msg.sender,_ownerOf(patentId), patents[patentId].price),'You have not enough PTNT to buy the patent');\r\n        emit PatentAssignment(patentId, _ownerOf(patentId), msg.sender);\r\n        _transfer(_ownerOf(patentId), msg.sender, patentId);\r\n    }\r\n    \r\n    ///@notice return number of filed patents\r\n    function getTokenCount() public view returns(uint){\r\n        return patentCounter;\r\n    }\r\n\r\n    ///@notice return the price in PTNT of a specific patent\r\n    ///@param patentId id of the nft associated to the patent\r\n    function getPatentprice(uint patentId) public view returns(uint){\r\n        return patents[patentId].price;\r\n    }\r\n\r\n    function getBids(uint tokenId) public returns(Bid[] memory){\r\n        return bids[tokenId];\r\n    }\r\n\r\n    function rejectBid(uint tokenId, uint indexBid) public{\r\n        require(_ownerOf(tokenId) == msg.sender,'You are not the owner of the patent');\r\n        require(bids[tokenId].length < indexBid, 'Index out of range');\r\n        bids[tokenId][indexBid].state = State.Refused;\r\n        emit BidRefused(tokenId, _ownerOf(tokenId), bids[tokenId][indexBid].bidder);\r\n    }\r\n\r\n    function acceptBid(uint tokenId, uint indexBid) public{\r\n        require(_ownerOf(tokenId) == msg.sender,'You are not the owner of the patent');\r\n        require(bids[tokenId].length < indexBid, 'Index out of range');\r\n        Bid memory bid = bids[tokenId][indexBid];\r\n        require(_ownerOf(tokenId) != bid.bidder, 'You can not accept your bids');\r\n        require(token.balanceOf(bid.bidder) >= bid.amount, 'The bidder does not have enough PTNT');\r\n        emit PatentAssignment(tokenId, msg.sender, bid.bidder);\r\n        token.transfer(bid.bidder, msg.sender, bid.amount);\r\n        safeTransferFrom(msg.sender, bid.bidder, tokenId);\r\n        \r\n    }\r\n\r\n    function makeBid(uint patentId, uint amount) public{\r\n        require(msg.sender != _ownerOf(patentId),'You are already the owner of the patent');\r\n        require(token.balanceOf(msg.sender) >= amount, 'You do not have enough PTNT');\r\n        Bid memory bid = Bid({\r\n            bidder: msg.sender,\r\n            amount: amount,\r\n            state: State.Pending\r\n        });\r\n        bids[patentId].push(bid);\r\n        emit MakeBid(patentId, ownerOf(patentId), msg.sender);\r\n    }\r\n\r\n\r\n}",
  "sourcePath": "C:\\Users\\nosen\\Documents\\PatentLink - Blockchain project\\contracts\\PatentNFT.sol",
  "compiler": {
    "name": "solc",
    "version": "0.8.20+commit.a1b79de6.Emscripten.clang"
  },
  "schemaVersion": "3.4.16",
  "updatedAt": "2024-01-06T21:47:51.104Z",
  "devdoc": {
    "author": "Carolina Proietti, Edoardo Giuggioloni, Paolo Marchignoli, Ruben Seror ",
    "errors": {
      "ERC721IncorrectOwner(address,uint256,address)": [
        {
          "details": "Indicates an error related to the ownership over a particular token. Used in transfers.",
          "params": {
            "owner": "Address of the current owner of a token.",
            "sender": "Address whose tokens are being transferred.",
            "tokenId": "Identifier number of a token."
          }
        }
      ],
      "ERC721InsufficientApproval(address,uint256)": [
        {
          "details": "Indicates a failure with the `operator`s approval. Used in transfers.",
          "params": {
            "operator": "Address that may be allowed to operate on tokens without being their owner.",
            "tokenId": "Identifier number of a token."
          }
        }
      ],
      "ERC721InvalidApprover(address)": [
        {
          "details": "Indicates a failure with the `approver` of a token to be approved. Used in approvals.",
          "params": {
            "approver": "Address initiating an approval operation."
          }
        }
      ],
      "ERC721InvalidOperator(address)": [
        {
          "details": "Indicates a failure with the `operator` to be approved. Used in approvals.",
          "params": {
            "operator": "Address that may be allowed to operate on tokens without being their owner."
          }
        }
      ],
      "ERC721InvalidOwner(address)": [
        {
          "details": "Indicates that an address can't be an owner. For example, `address(0)` is a forbidden owner in EIP-20. Used in balance queries.",
          "params": {
            "owner": "Address of the current owner of a token."
          }
        }
      ],
      "ERC721InvalidReceiver(address)": [
        {
          "details": "Indicates a failure with the token `receiver`. Used in transfers.",
          "params": {
            "receiver": "Address to which tokens are being transferred."
          }
        }
      ],
      "ERC721InvalidSender(address)": [
        {
          "details": "Indicates a failure with the token `sender`. Used in transfers.",
          "params": {
            "sender": "Address whose tokens are being transferred."
          }
        }
      ],
      "ERC721NonexistentToken(uint256)": [
        {
          "details": "Indicates a `tokenId` whose `owner` is the zero address.",
          "params": {
            "tokenId": "Identifier number of a token."
          }
        }
      ]
    },
    "events": {
      "Approval(address,address,uint256)": {
        "details": "Emitted when `owner` enables `approved` to manage the `tokenId` token."
      },
      "ApprovalForAll(address,address,bool)": {
        "details": "Emitted when `owner` enables or disables (`approved`) `operator` to manage all of its assets."
      },
      "BatchMetadataUpdate(uint256,uint256)": {
        "details": "This event emits when the metadata of a range of tokens is changed. So that the third-party platforms such as NFT market could timely update the images and related attributes of the NFTs."
      },
      "MetadataUpdate(uint256)": {
        "details": "This event emits when the metadata of a token is changed. So that the third-party platforms such as NFT market could timely update the images and related attributes of the NFT."
      },
      "Transfer(address,address,uint256)": {
        "details": "Emitted when `tokenId` token is transferred from `from` to `to`."
      }
    },
    "kind": "dev",
    "methods": {
      "approve(address,uint256)": {
        "details": "See {IERC721-approve}."
      },
      "balanceOf(address)": {
        "details": "See {IERC721-balanceOf}."
      },
      "filePatent(string)": {
        "params": {
          "_uri": "URI of the filed Patent in IPFS"
        }
      },
      "getApproved(uint256)": {
        "details": "See {IERC721-getApproved}."
      },
      "getPatentprice(uint256)": {
        "params": {
          "patentId": "id of the nft associated to the patent"
        }
      },
      "isApprovedForAll(address,address)": {
        "details": "See {IERC721-isApprovedForAll}."
      },
      "name()": {
        "details": "See {IERC721Metadata-name}."
      },
      "ownerOf(uint256)": {
        "details": "See {IERC721-ownerOf}."
      },
      "safeTransferFrom(address,address,uint256)": {
        "details": "See {IERC721-safeTransferFrom}."
      },
      "safeTransferFrom(address,address,uint256,bytes)": {
        "details": "See {IERC721-safeTransferFrom}."
      },
      "setApprovalForAll(address,bool)": {
        "details": "See {IERC721-setApprovalForAll}."
      },
      "setPatentForSale(uint256,uint256)": {
        "params": {
          "patentId": "nft id of the patent"
        }
      },
      "setPatentNotForSale(uint256)": {
        "params": {
          "patentId": "nft id of the patent"
        }
      },
      "supportsInterface(bytes4)": {
        "details": "See {IERC165-supportsInterface}"
      },
      "symbol()": {
        "details": "See {IERC721Metadata-symbol}."
      },
      "tokenURI(uint256)": {
        "details": "See {IERC721Metadata-tokenURI}."
      },
      "transferFrom(address,address,uint256)": {
        "details": "See {IERC721-transferFrom}."
      }
    },
    "title": "PatentNFT contract",
    "version": 1
  },
  "userdoc": {
    "kind": "user",
    "methods": {
      "filePatent(string)": {
        "notice": "method that allow user to file their patents"
      },
      "getPatentprice(uint256)": {
        "notice": "return the price in PTNT of a specific patent"
      },
      "getTokenCount()": {
        "notice": "return number of filed patents"
      },
      "setPatentForSale(uint256,uint256)": {
        "notice": "user can put the patent up for sale"
      },
      "setPatentNotForSale(uint256)": {
        "notice": "user can remove the patent from sale"
      }
    },
    "notice": "You can use this contract to file patent, buy and sell associated NFTs",
    "version": 1
  }
}