{
  "contractName": "PatentToken",
  "abi": [
    {
      "inputs": [
        {
          "internalType": "uint256",
          "name": "_filingFee",
          "type": "uint256"
        }
      ],
      "stateMutability": "nonpayable",
      "type": "constructor"
    },
    {
      "inputs": [
        {
          "internalType": "address",
          "name": "spender",
          "type": "address"
        },
        {
          "internalType": "uint256",
          "name": "allowance",
          "type": "uint256"
        },
        {
          "internalType": "uint256",
          "name": "needed",
          "type": "uint256"
        }
      ],
      "name": "ERC20InsufficientAllowance",
      "type": "error"
    },
    {
      "inputs": [
        {
          "internalType": "address",
          "name": "sender",
          "type": "address"
        },
        {
          "internalType": "uint256",
          "name": "balance",
          "type": "uint256"
        },
        {
          "internalType": "uint256",
          "name": "needed",
          "type": "uint256"
        }
      ],
      "name": "ERC20InsufficientBalance",
      "type": "error"
    },
    {
      "inputs": [
        {
          "internalType": "address",
          "name": "approver",
          "type": "address"
        }
      ],
      "name": "ERC20InvalidApprover",
      "type": "error"
    },
    {
      "inputs": [
        {
          "internalType": "address",
          "name": "receiver",
          "type": "address"
        }
      ],
      "name": "ERC20InvalidReceiver",
      "type": "error"
    },
    {
      "inputs": [
        {
          "internalType": "address",
          "name": "sender",
          "type": "address"
        }
      ],
      "name": "ERC20InvalidSender",
      "type": "error"
    },
    {
      "inputs": [
        {
          "internalType": "address",
          "name": "spender",
          "type": "address"
        }
      ],
      "name": "ERC20InvalidSpender",
      "type": "error"
    },
    {
      "anonymous": false,
      "inputs": [
        {
          "indexed": true,
          "internalType": "address",
          "name": "owner",
          "type": "address"
        },
        {
          "indexed": true,
          "internalType": "address",
          "name": "spender",
          "type": "address"
        },
        {
          "indexed": false,
          "internalType": "uint256",
          "name": "value",
          "type": "uint256"
        }
      ],
      "name": "Approval",
      "type": "event"
    },
    {
      "anonymous": false,
      "inputs": [
        {
          "indexed": true,
          "internalType": "address",
          "name": "buyer",
          "type": "address"
        },
        {
          "indexed": false,
          "internalType": "uint256",
          "name": "value",
          "type": "uint256"
        }
      ],
      "name": "BuyPTNT",
      "type": "event"
    },
    {
      "anonymous": false,
      "inputs": [
        {
          "indexed": true,
          "internalType": "address",
          "name": "seller",
          "type": "address"
        },
        {
          "indexed": false,
          "internalType": "uint256",
          "name": "value",
          "type": "uint256"
        }
      ],
      "name": "SellPTNT",
      "type": "event"
    },
    {
      "anonymous": false,
      "inputs": [
        {
          "indexed": true,
          "internalType": "address",
          "name": "from",
          "type": "address"
        },
        {
          "indexed": true,
          "internalType": "address",
          "name": "to",
          "type": "address"
        },
        {
          "indexed": false,
          "internalType": "uint256",
          "name": "value",
          "type": "uint256"
        }
      ],
      "name": "Transfer",
      "type": "event"
    },
    {
      "inputs": [
        {
          "internalType": "address",
          "name": "owner",
          "type": "address"
        },
        {
          "internalType": "address",
          "name": "spender",
          "type": "address"
        }
      ],
      "name": "allowance",
      "outputs": [
        {
          "internalType": "uint256",
          "name": "",
          "type": "uint256"
        }
      ],
      "stateMutability": "view",
      "type": "function"
    },
    {
      "inputs": [
        {
          "internalType": "address",
          "name": "spender",
          "type": "address"
        },
        {
          "internalType": "uint256",
          "name": "value",
          "type": "uint256"
        }
      ],
      "name": "approve",
      "outputs": [
        {
          "internalType": "bool",
          "name": "",
          "type": "bool"
        }
      ],
      "stateMutability": "nonpayable",
      "type": "function"
    },
    {
      "inputs": [
        {
          "internalType": "address",
          "name": "account",
          "type": "address"
        }
      ],
      "name": "balanceOf",
      "outputs": [
        {
          "internalType": "uint256",
          "name": "",
          "type": "uint256"
        }
      ],
      "stateMutability": "view",
      "type": "function"
    },
    {
      "inputs": [],
      "name": "decimals",
      "outputs": [
        {
          "internalType": "uint8",
          "name": "",
          "type": "uint8"
        }
      ],
      "stateMutability": "view",
      "type": "function"
    },
    {
      "inputs": [],
      "name": "filingFee",
      "outputs": [
        {
          "internalType": "uint256",
          "name": "",
          "type": "uint256"
        }
      ],
      "stateMutability": "view",
      "type": "function"
    },
    {
      "inputs": [],
      "name": "name",
      "outputs": [
        {
          "internalType": "string",
          "name": "",
          "type": "string"
        }
      ],
      "stateMutability": "view",
      "type": "function"
    },
    {
      "inputs": [],
      "name": "owner",
      "outputs": [
        {
          "internalType": "address",
          "name": "",
          "type": "address"
        }
      ],
      "stateMutability": "view",
      "type": "function"
    },
    {
      "inputs": [],
      "name": "symbol",
      "outputs": [
        {
          "internalType": "string",
          "name": "",
          "type": "string"
        }
      ],
      "stateMutability": "view",
      "type": "function"
    },
    {
      "inputs": [],
      "name": "totalSupply",
      "outputs": [
        {
          "internalType": "uint256",
          "name": "",
          "type": "uint256"
        }
      ],
      "stateMutability": "view",
      "type": "function"
    },
    {
      "inputs": [
        {
          "internalType": "address",
          "name": "from",
          "type": "address"
        },
        {
          "internalType": "address",
          "name": "to",
          "type": "address"
        },
        {
          "internalType": "uint256",
          "name": "value",
          "type": "uint256"
        }
      ],
      "name": "transferFrom",
      "outputs": [
        {
          "internalType": "bool",
          "name": "",
          "type": "bool"
        }
      ],
      "stateMutability": "nonpayable",
      "type": "function"
    },
    {
      "inputs": [
        {
          "internalType": "uint256",
          "name": "amount",
          "type": "uint256"
        }
      ],
      "name": "buyToken",
      "outputs": [],
      "stateMutability": "payable",
      "type": "function"
    },
    {
      "inputs": [
        {
          "internalType": "uint256",
          "name": "amount",
          "type": "uint256"
        }
      ],
      "name": "sellToken",
      "outputs": [],
      "stateMutability": "nonpayable",
      "type": "function"
    },
    {
      "inputs": [
        {
          "internalType": "address",
          "name": "_sender",
          "type": "address"
        }
      ],
      "name": "payFilingFee",
      "outputs": [
        {
          "internalType": "bool",
          "name": "",
          "type": "bool"
        }
      ],
      "stateMutability": "nonpayable",
      "type": "function"
    },
    {
      "inputs": [
        {
          "internalType": "uint256",
          "name": "amount",
          "type": "uint256"
        }
      ],
      "name": "setFilingFee",
      "outputs": [],
      "stateMutability": "nonpayable",
      "type": "function"
    },
    {
      "inputs": [
        {
          "internalType": "uint256",
          "name": "amount",
          "type": "uint256"
        }
      ],
      "name": "mint",
      "outputs": [],
      "stateMutability": "nonpayable",
      "type": "function"
    },
    {
      "inputs": [
        {
          "internalType": "address",
          "name": "_newOwner",
          "type": "address"
        }
      ],
      "name": "changeOwner",
      "outputs": [],
      "stateMutability": "nonpayable",
      "type": "function"
    },
    {
      "inputs": [
        {
          "internalType": "address",
          "name": "to",
          "type": "address"
        },
        {
          "internalType": "uint256",
          "name": "value",
          "type": "uint256"
        }
      ],
      "name": "transfer",
      "outputs": [
        {
          "internalType": "bool",
          "name": "",
          "type": "bool"
        }
      ],
      "stateMutability": "nonpayable",
      "type": "function"
    },
    {
      "inputs": [
        {
          "internalType": "address",
          "name": "from",
          "type": "address"
        },
        {
          "internalType": "address",
          "name": "to",
          "type": "address"
        },
        {
          "internalType": "uint256",
          "name": "amount",
          "type": "uint256"
        }
      ],
      "name": "transfer",
      "outputs": [
        {
          "internalType": "bool",
          "name": "",
          "type": "bool"
        }
      ],
      "stateMutability": "nonpayable",
      "type": "function"
    }
  ],
  "bytecode": "0x608060405234801562000010575f80fd5b506040516200269e3803806200269e833981810160405281019062000036919062000468565b6040518060400160405280600b81526020017f506174656e74546f6b656e0000000000000000000000000000000000000000008152506040518060400160405280600481526020017f50544e54000000000000000000000000000000000000000000000000000000008152508160039081620000b39190620006f3565b508060049081620000c59190620006f3565b5050503360055f6101000a81548173ffffffffffffffffffffffffffffffffffffffff021916908373ffffffffffffffffffffffffffffffffffffffff160217905550806006819055506200016f60055f9054906101000a900473ffffffffffffffffffffffffffffffffffffffff16620001456200017660201b60201c565b600a62000153919062000960565b620186a0620001639190620009b0565b6200017e60201b60201c565b5062000af9565b5f6012905090565b5f73ffffffffffffffffffffffffffffffffffffffff168273ffffffffffffffffffffffffffffffffffffffff1603620001f1575f6040517fec442f05000000000000000000000000000000000000000000000000000000008152600401620001e8919062000a3d565b60405180910390fd5b620002045f83836200020860201b60201c565b5050565b5f73ffffffffffffffffffffffffffffffffffffffff168373ffffffffffffffffffffffffffffffffffffffff16036200025c578060025f8282546200024f919062000a58565b925050819055506200032d565b5f805f8573ffffffffffffffffffffffffffffffffffffffff1673ffffffffffffffffffffffffffffffffffffffff1681526020019081526020015f2054905081811015620002e8578381836040517fe450d38c000000000000000000000000000000000000000000000000000000008152600401620002df9392919062000aa3565b60405180910390fd5b8181035f808673ffffffffffffffffffffffffffffffffffffffff1673ffffffffffffffffffffffffffffffffffffffff1681526020019081526020015f2081905550505b5f73ffffffffffffffffffffffffffffffffffffffff168273ffffffffffffffffffffffffffffffffffffffff160362000376578060025f8282540392505081905550620003c0565b805f808473ffffffffffffffffffffffffffffffffffffffff1673ffffffffffffffffffffffffffffffffffffffff1681526020019081526020015f205f82825401925050819055505b8173ffffffffffffffffffffffffffffffffffffffff168373ffffffffffffffffffffffffffffffffffffffff167fddf252ad1be2c89b69c2b068fc378daa952ba7f163c4a11628f55a4df523b3ef836040516200041f919062000ade565b60405180910390a3505050565b5f80fd5b5f819050919050565b620004448162000430565b81146200044f575f80fd5b50565b5f81519050620004628162000439565b92915050565b5f6020828403121562000480576200047f6200042c565b5b5f6200048f8482850162000452565b91505092915050565b5f81519050919050565b7f4e487b71000000000000000000000000000000000000000000000000000000005f52604160045260245ffd5b7f4e487b71000000000000000000000000000000000000000000000000000000005f52602260045260245ffd5b5f60028204905060018216806200051457607f821691505b6020821081036200052a5762000529620004cf565b5b50919050565b5f819050815f5260205f209050919050565b5f6020601f8301049050919050565b5f82821b905092915050565b5f600883026200058e7fffffffffffffffffffffffffffffffffffffffffffffffffffffffffffffffff8262000551565b6200059a868362000551565b95508019841693508086168417925050509392505050565b5f819050919050565b5f620005db620005d5620005cf8462000430565b620005b2565b62000430565b9050919050565b5f819050919050565b620005f683620005bb565b6200060e6200060582620005e2565b8484546200055d565b825550505050565b5f90565b6200062462000616565b62000631818484620005eb565b505050565b5b8181101562000658576200064c5f826200061a565b60018101905062000637565b5050565b601f821115620006a757620006718162000530565b6200067c8462000542565b810160208510156200068c578190505b620006a46200069b8562000542565b83018262000636565b50505b505050565b5f82821c905092915050565b5f620006c95f1984600802620006ac565b1980831691505092915050565b5f620006e38383620006b8565b9150826002028217905092915050565b620006fe8262000498565b67ffffffffffffffff8111156200071a5762000719620004a2565b5b620007268254620004fc565b620007338282856200065c565b5f60209050601f83116001811462000769575f841562000754578287015190505b620007608582620006d6565b865550620007cf565b601f198416620007798662000530565b5f5b82811015620007a2578489015182556001820191506020850194506020810190506200077b565b86831015620007c25784890151620007be601f891682620006b8565b8355505b6001600288020188555050505b505050505050565b7f4e487b71000000000000000000000000000000000000000000000000000000005f52601160045260245ffd5b5f8160011c9050919050565b5f808291508390505b60018511156200086157808604811115620008395762000838620007d7565b5b6001851615620008495780820291505b8081029050620008598562000804565b945062000819565b94509492505050565b5f826200087b57600190506200094d565b816200088a575f90506200094d565b8160018114620008a35760028114620008ae57620008e4565b60019150506200094d565b60ff841115620008c357620008c2620007d7565b5b8360020a915084821115620008dd57620008dc620007d7565b5b506200094d565b5060208310610133831016604e8410600b84101617156200091e5782820a905083811115620009185762000917620007d7565b5b6200094d565b6200092d848484600162000810565b92509050818404811115620009475762000946620007d7565b5b81810290505b9392505050565b5f60ff82169050919050565b5f6200096c8262000430565b9150620009798362000954565b9250620009a87fffffffffffffffffffffffffffffffffffffffffffffffffffffffffffffffff84846200086a565b905092915050565b5f620009bc8262000430565b9150620009c98362000430565b9250828202620009d98162000430565b91508282048414831517620009f357620009f2620007d7565b5b5092915050565b5f73ffffffffffffffffffffffffffffffffffffffff82169050919050565b5f62000a2582620009fa565b9050919050565b62000a378162000a19565b82525050565b5f60208201905062000a525f83018462000a2c565b92915050565b5f62000a648262000430565b915062000a718362000430565b925082820190508082111562000a8c5762000a8b620007d7565b5b92915050565b62000a9d8162000430565b82525050565b5f60608201905062000ab85f83018662000a2c565b62000ac7602083018562000a92565b62000ad6604083018462000a92565b949350505050565b5f60208201905062000af35f83018462000a92565b92915050565b611b978062000b075f395ff3fe608060405260043610610108575f3560e01c80637f5db3e811610094578063a0712d6811610063578063a0712d6814610364578063a6f9dae11461038c578063a9059cbb146103b4578063beabacc8146103f0578063dd62ed3e1461042c57610108565b80637f5db3e8146102ac5780638da5cb5b146102e857806395d89b411461031257806399f0eed51461033c57610108565b806323b872dd116100db57806323b872dd146101c45780632d296bf114610200578063313ce5671461021c57806370a082311461024657806373169cf81461028257610108565b806306fdde031461010c578063095ea7b31461013657806318160ddd146101725780632397e4d71461019c575b5f80fd5b348015610117575f80fd5b50610120610468565b60405161012d919061136f565b60405180910390f35b348015610141575f80fd5b5061015c60048036038101906101579190611420565b6104f8565b6040516101699190611478565b60405180910390f35b34801561017d575f80fd5b5061018661051a565b60405161019391906114a0565b60405180910390f35b3480156101a7575f80fd5b506101c260048036038101906101bd91906114b9565b610523565b005b3480156101cf575f80fd5b506101ea60048036038101906101e591906114e4565b610671565b6040516101f79190611478565b60405180910390f35b61021a600480360381019061021591906114b9565b61069f565b005b348015610227575f80fd5b506102306107ca565b60405161023d919061154f565b60405180910390f35b348015610251575f80fd5b5061026c60048036038101906102679190611568565b6107d2565b60405161027991906114a0565b60405180910390f35b34801561028d575f80fd5b50610296610817565b6040516102a391906114a0565b60405180910390f35b3480156102b7575f80fd5b506102d260048036038101906102cd9190611568565b61081d565b6040516102df9190611478565b60405180910390f35b3480156102f3575f80fd5b506102fc6108a1565b60405161030991906115a2565b60405180910390f35b34801561031d575f80fd5b506103266108c6565b604051610333919061136f565b60405180910390f35b348015610347575f80fd5b50610362600480360381019061035d91906114b9565b610956565b005b34801561036f575f80fd5b5061038a600480360381019061038591906114b9565b6109ef565b005b348015610397575f80fd5b506103b260048036038101906103ad9190611568565b610aca565b005b3480156103bf575f80fd5b506103da60048036038101906103d59190611420565b610c28565b6040516103e79190611478565b60405180910390f35b3480156103fb575f80fd5b50610416600480360381019061041191906114e4565b610c4a565b6040516104239190611478565b60405180910390f35b348015610437575f80fd5b50610452600480360381019061044d91906115bb565b610c61565b60405161045f91906114a0565b60405180910390f35b60606003805461047790611626565b80601f01602080910402602001604051908101604052809291908181526020018280546104a390611626565b80156104ee5780601f106104c5576101008083540402835291602001916104ee565b820191905f5260205f20905b8154815290600101906020018083116104d157829003601f168201915b5050505050905090565b5f80610502610ce3565b905061050f818585610cea565b600191505092915050565b5f600254905090565b5f8111610565576040517f08c379a000000000000000000000000000000000000000000000000000000000815260040161055c906116a0565b60405180910390fd5b8061056f336107d2565b10156105b0576040517f08c379a00000000000000000000000000000000000000000000000000000000081526004016105a79061172e565b60405180910390fd5b3373ffffffffffffffffffffffffffffffffffffffff167f9fef8f371a1f201ae0bdcba6e201607258bd7d95ff1d21f0ba2b45d42d90a9ff826040516105f691906114a0565b60405180910390a23373ffffffffffffffffffffffffffffffffffffffff166108fc8290811502906040515f60405180830381858888f19350505050158015610641573d5f803e3d5ffd5b5061066e3360055f9054906101000a900473ffffffffffffffffffffffffffffffffffffffff1683610cfc565b50565b5f8061067b610ce3565b9050610688858285610dec565b610693858585610cfc565b60019150509392505050565b806106ca60055f9054906101000a900473ffffffffffffffffffffffffffffffffffffffff166107d2565b101561070b576040517f08c379a000000000000000000000000000000000000000000000000000000000815260040161070290611796565b60405180910390fd5b80341161074d576040517f08c379a0000000000000000000000000000000000000000000000000000000008152600401610744906117fe565b60405180910390fd5b3373ffffffffffffffffffffffffffffffffffffffff167f67e144813a3bb1a1aa250e38ebaad29e0f91d69b08e28fbd81c88e21da8166d08260405161079391906114a0565b60405180910390a26107c760055f9054906101000a900473ffffffffffffffffffffffffffffffffffffffff163383610cfc565b50565b5f6012905090565b5f805f8373ffffffffffffffffffffffffffffffffffffffff1673ffffffffffffffffffffffffffffffffffffffff1681526020019081526020015f20549050919050565b60065481565b5f60065461082a836107d2565b1161086a576040517f08c379a00000000000000000000000000000000000000000000000000000000081526004016108619061188c565b60405180910390fd5b6108988260055f9054906101000a900473ffffffffffffffffffffffffffffffffffffffff16600654610cfc565b60019050919050565b60055f9054906101000a900473ffffffffffffffffffffffffffffffffffffffff1681565b6060600480546108d590611626565b80601f016020809104026020016040519081016040528092919081815260200182805461090190611626565b801561094c5780601f106109235761010080835404028352916020019161094c565b820191905f5260205f20905b81548152906001019060200180831161092f57829003601f168201915b5050505050905090565b60055f9054906101000a900473ffffffffffffffffffffffffffffffffffffffff1673ffffffffffffffffffffffffffffffffffffffff163373ffffffffffffffffffffffffffffffffffffffff16146109e5576040517f08c379a00000000000000000000000000000000000000000000000000000000081526004016109dc906118f4565b60405180910390fd5b8060068190555050565b60055f9054906101000a900473ffffffffffffffffffffffffffffffffffffffff1673ffffffffffffffffffffffffffffffffffffffff163373ffffffffffffffffffffffffffffffffffffffff1614610a7e576040517f08c379a0000000000000000000000000000000000000000000000000000000008152600401610a75906118f4565b60405180910390fd5b610ac760055f9054906101000a900473ffffffffffffffffffffffffffffffffffffffff16610aab6107ca565b600a610ab79190611a6e565b83610ac29190611ab8565b610e7e565b50565b60055f9054906101000a900473ffffffffffffffffffffffffffffffffffffffff1673ffffffffffffffffffffffffffffffffffffffff163373ffffffffffffffffffffffffffffffffffffffff1614610b59576040517f08c379a0000000000000000000000000000000000000000000000000000000008152600401610b50906118f4565b60405180910390fd5b5f73ffffffffffffffffffffffffffffffffffffffff168173ffffffffffffffffffffffffffffffffffffffff1603610b90575f80fd5b610be560055f9054906101000a900473ffffffffffffffffffffffffffffffffffffffff1682610be060055f9054906101000a900473ffffffffffffffffffffffffffffffffffffffff166107d2565b610cfc565b8060055f6101000a81548173ffffffffffffffffffffffffffffffffffffffff021916908373ffffffffffffffffffffffffffffffffffffffff16021790555050565b5f80610c32610ce3565b9050610c3f818585610cfc565b600191505092915050565b5f610c56848484610cfc565b600190509392505050565b5f60015f8473ffffffffffffffffffffffffffffffffffffffff1673ffffffffffffffffffffffffffffffffffffffff1681526020019081526020015f205f8373ffffffffffffffffffffffffffffffffffffffff1673ffffffffffffffffffffffffffffffffffffffff1681526020019081526020015f2054905092915050565b5f33905090565b610cf78383836001610efd565b505050565b5f73ffffffffffffffffffffffffffffffffffffffff168373ffffffffffffffffffffffffffffffffffffffff1603610d6c575f6040517f96c6fd1e000000000000000000000000000000000000000000000000000000008152600401610d6391906115a2565b60405180910390fd5b5f73ffffffffffffffffffffffffffffffffffffffff168273ffffffffffffffffffffffffffffffffffffffff1603610ddc575f6040517fec442f05000000000000000000000000000000000000000000000000000000008152600401610dd391906115a2565b60405180910390fd5b610de78383836110cc565b505050565b5f610df78484610c61565b90507fffffffffffffffffffffffffffffffffffffffffffffffffffffffffffffffff8114610e785781811015610e69578281836040517ffb8f41b2000000000000000000000000000000000000000000000000000000008152600401610e6093929190611af9565b60405180910390fd5b610e7784848484035f610efd565b5b50505050565b5f73ffffffffffffffffffffffffffffffffffffffff168273ffffffffffffffffffffffffffffffffffffffff1603610eee575f6040517fec442f05000000000000000000000000000000000000000000000000000000008152600401610ee591906115a2565b60405180910390fd5b610ef95f83836110cc565b5050565b5f73ffffffffffffffffffffffffffffffffffffffff168473ffffffffffffffffffffffffffffffffffffffff1603610f6d575f6040517fe602df05000000000000000000000000000000000000000000000000000000008152600401610f6491906115a2565b60405180910390fd5b5f73ffffffffffffffffffffffffffffffffffffffff168373ffffffffffffffffffffffffffffffffffffffff1603610fdd575f6040517f94280d62000000000000000000000000000000000000000000000000000000008152600401610fd491906115a2565b60405180910390fd5b8160015f8673ffffffffffffffffffffffffffffffffffffffff1673ffffffffffffffffffffffffffffffffffffffff1681526020019081526020015f205f8573ffffffffffffffffffffffffffffffffffffffff1673ffffffffffffffffffffffffffffffffffffffff1681526020019081526020015f208190555080156110c6578273ffffffffffffffffffffffffffffffffffffffff168473ffffffffffffffffffffffffffffffffffffffff167f8c5be1e5ebec7d5bd14f71427d1e84f3dd0314c0f7b2291e5b200ac8c7c3b925846040516110bd91906114a0565b60405180910390a35b50505050565b5f73ffffffffffffffffffffffffffffffffffffffff168373ffffffffffffffffffffffffffffffffffffffff160361111c578060025f8282546111109190611b2e565b925050819055506111ea565b5f805f8573ffffffffffffffffffffffffffffffffffffffff1673ffffffffffffffffffffffffffffffffffffffff1681526020019081526020015f20549050818110156111a5578381836040517fe450d38c00000000000000000000000000000000000000000000000000000000815260040161119c93929190611af9565b60405180910390fd5b8181035f808673ffffffffffffffffffffffffffffffffffffffff1673ffffffffffffffffffffffffffffffffffffffff1681526020019081526020015f2081905550505b5f73ffffffffffffffffffffffffffffffffffffffff168273ffffffffffffffffffffffffffffffffffffffff1603611231578060025f828254039250508190555061127b565b805f808473ffffffffffffffffffffffffffffffffffffffff1673ffffffffffffffffffffffffffffffffffffffff1681526020019081526020015f205f82825401925050819055505b8173ffffffffffffffffffffffffffffffffffffffff168373ffffffffffffffffffffffffffffffffffffffff167fddf252ad1be2c89b69c2b068fc378daa952ba7f163c4a11628f55a4df523b3ef836040516112d891906114a0565b60405180910390a3505050565b5f81519050919050565b5f82825260208201905092915050565b5f5b8381101561131c578082015181840152602081019050611301565b5f8484015250505050565b5f601f19601f8301169050919050565b5f611341826112e5565b61134b81856112ef565b935061135b8185602086016112ff565b61136481611327565b840191505092915050565b5f6020820190508181035f8301526113878184611337565b905092915050565b5f80fd5b5f73ffffffffffffffffffffffffffffffffffffffff82169050919050565b5f6113bc82611393565b9050919050565b6113cc816113b2565b81146113d6575f80fd5b50565b5f813590506113e7816113c3565b92915050565b5f819050919050565b6113ff816113ed565b8114611409575f80fd5b50565b5f8135905061141a816113f6565b92915050565b5f80604083850312156114365761143561138f565b5b5f611443858286016113d9565b92505060206114548582860161140c565b9150509250929050565b5f8115159050919050565b6114728161145e565b82525050565b5f60208201905061148b5f830184611469565b92915050565b61149a816113ed565b82525050565b5f6020820190506114b35f830184611491565b92915050565b5f602082840312156114ce576114cd61138f565b5b5f6114db8482850161140c565b91505092915050565b5f805f606084860312156114fb576114fa61138f565b5b5f611508868287016113d9565b9350506020611519868287016113d9565b925050604061152a8682870161140c565b9150509250925092565b5f60ff82169050919050565b61154981611534565b82525050565b5f6020820190506115625f830184611540565b92915050565b5f6020828403121561157d5761157c61138f565b5b5f61158a848285016113d9565b91505092915050565b61159c816113b2565b82525050565b5f6020820190506115b55f830184611593565b92915050565b5f80604083850312156115d1576115d061138f565b5b5f6115de858286016113d9565b92505060206115ef858286016113d9565b9150509250929050565b7f4e487b71000000000000000000000000000000000000000000000000000000005f52602260045260245ffd5b5f600282049050600182168061163d57607f821691505b6020821081036116505761164f6115f9565b5b50919050565b7f4e6f20616d6f756e74206f662050544e542061726520737065636966696564005f82015250565b5f61168a601f836112ef565b915061169582611656565b602082019050919050565b5f6020820190508181035f8301526116b78161167e565b9050919050565b7f596f7520646f206e6f742068617665207468617420616d6f756e74206f6620505f8201527f544e540000000000000000000000000000000000000000000000000000000000602082015250565b5f6117186023836112ef565b9150611723826116be565b604082019050919050565b5f6020820190508181035f8301526117458161170c565b9050919050565b7f4e6f7420656e6f7567682050544e5420696e207468652065636f6e6f6d7900005f82015250565b5f611780601e836112ef565b915061178b8261174c565b602082019050919050565b5f6020820190508181035f8301526117ad81611774565b9050919050565b7f4e6f7420656e6f7567682045544820746f206275792050544e540000000000005f82015250565b5f6117e8601a836112ef565b91506117f3826117b4565b602082019050919050565b5f6020820190508181035f830152611815816117dc565b9050919050565b7f4e6f7420656e6f7567682050544e5420746f207061792066696c696e672066655f8201527f6500000000000000000000000000000000000000000000000000000000000000602082015250565b5f6118766021836112ef565b91506118818261181c565b604082019050919050565b5f6020820190508181035f8301526118a38161186a565b9050919050565b7f4f6e6c79206f776e65722063616e2063616c6c20746869732e000000000000005f82015250565b5f6118de6019836112ef565b91506118e9826118aa565b602082019050919050565b5f6020820190508181035f83015261190b816118d2565b9050919050565b7f4e487b71000000000000000000000000000000000000000000000000000000005f52601160045260245ffd5b5f8160011c9050919050565b5f808291508390505b6001851115611994578086048111156119705761196f611912565b5b600185161561197f5780820291505b808102905061198d8561193f565b9450611954565b94509492505050565b5f826119ac5760019050611a67565b816119b9575f9050611a67565b81600181146119cf57600281146119d957611a08565b6001915050611a67565b60ff8411156119eb576119ea611912565b5b8360020a915084821115611a0257611a01611912565b5b50611a67565b5060208310610133831016604e8410600b8410161715611a3d5782820a905083811115611a3857611a37611912565b5b611a67565b611a4a848484600161194b565b92509050818404811115611a6157611a60611912565b5b81810290505b9392505050565b5f611a78826113ed565b9150611a8383611534565b9250611ab07fffffffffffffffffffffffffffffffffffffffffffffffffffffffffffffffff848461199d565b905092915050565b5f611ac2826113ed565b9150611acd836113ed565b9250828202611adb816113ed565b91508282048414831517611af257611af1611912565b5b5092915050565b5f606082019050611b0c5f830186611593565b611b196020830185611491565b611b266040830184611491565b949350505050565b5f611b38826113ed565b9150611b43836113ed565b9250828201905080821115611b5b57611b5a611912565b5b9291505056fea26469706673582212204d6094cd4468c254895cf670f5a4bc28213a6dc1d95bb131f085a407ecddf0ea64736f6c63430008140033",
  "immutableReferences": {},
  "source": "// SPDX-License-Identifier: MIT\r\npragma solidity >=0.4.22 <0.9.0;\r\n\r\nimport \"@openzeppelin/contracts/token/ERC20/ERC20.sol\";\r\n\r\n\r\n/// @title Patent Token contract\r\n/// @author Carolina Proietti, Edoardo Giuggioloni, Paolo Marchignoli, Ruben Seror \r\n/// @notice You can use this contract to buy and sell PTNT, see accounts balances\r\ncontract PatentToken is ERC20{\r\n\r\n    address public owner;\r\n    uint public filingFee;\r\n    \r\n    event BuyPTNT(address indexed buyer, uint value);\r\n    event SellPTNT(address indexed seller, uint value);\r\n\r\n    /// @notice  throws an error if the msg.sender is not the owner.\r\n    modifier onlyOwner() {\r\n        require(msg.sender == owner, \"Only owner can call this.\");\r\n        _;\r\n    }\r\n\r\n    constructor(uint _filingFee)\r\n        ERC20(\"PatentToken\", \"PTNT\") {\r\n            owner = msg.sender;\r\n            filingFee = _filingFee;\r\n            _mint(owner, 100000 * (10 ** decimals()));\r\n        }\r\n\r\n    ///@notice It allows sender to purchase PTNT\r\n    ///@param amount amount of PTNT to purchase\r\n    function buyToken(uint amount) public payable{\r\n        require(balanceOf(owner) >= amount, 'Not enough PTNT in the economy');\r\n        require(msg.value > amount,'Not enough ETH to buy PTNT');\r\n        emit BuyPTNT(msg.sender, amount);\r\n        _transfer(owner,msg.sender,amount);\r\n    }\r\n\r\n    ///@notice It allows sender to convert PTNT into ETH\r\n    ///@param amount amount of PTNT to sell  \r\n    function sellToken(uint amount) public{\r\n        require(amount > 0, 'No amount of PTNT are specified');\r\n        require(balanceOf(msg.sender) >= amount, 'You do not have that amount of PTNT');\r\n        emit SellPTNT(msg.sender,amount);\r\n        payable(msg.sender).transfer(amount);\r\n        _transfer(msg.sender, owner, amount);\r\n\r\n    }\r\n\r\n    ///@notice Sender pay filingFee to file patent\r\n    ///@param _sender address of account which pay the fee\r\n    function payFilingFee(address _sender) external returns(bool){\r\n        require(balanceOf(_sender)> filingFee,'Not enough PTNT to pay filing fee');\r\n        _transfer(_sender, owner, filingFee);\r\n        return true;\r\n    }\r\n\r\n    ///@notice set the price of filing fee\r\n    ///@param amount new price of filing fee\r\n    function setFilingFee(uint amount) public onlyOwner{\r\n        filingFee = amount;\r\n    }\r\n\r\n    ///@notice emit PTNT \r\n    ///@param amount amount of PTNT minted\r\n    function mint(uint amount) public onlyOwner{\r\n        _mint(owner, amount * (10 ** decimals()));\r\n    }\r\n\r\n    function changeOwner(address _newOwner) public onlyOwner{\r\n        require(_newOwner != address(0));\r\n        _transfer(owner, _newOwner, balanceOf(owner));\r\n        owner = _newOwner;\r\n\r\n    }\r\n\r\n    function transfer(address from, address to, uint amount) external returns(bool){\r\n        _transfer(from, to,amount);\r\n        return true;\r\n    }\r\n\r\n}",
  "sourcePath": "C:\\Users\\nosen\\Documents\\PatentLink - Blockchain project\\contracts\\PatentToken.sol",
  "compiler": {
    "name": "solc",
    "version": "0.8.20+commit.a1b79de6.Emscripten.clang"
  },
  "schemaVersion": "3.4.16",
  "updatedAt": "2024-01-06T21:47:51.117Z",
  "devdoc": {
    "author": "Carolina Proietti, Edoardo Giuggioloni, Paolo Marchignoli, Ruben Seror ",
    "errors": {
      "ERC20InsufficientAllowance(address,uint256,uint256)": [
        {
          "details": "Indicates a failure with the `spender`s `allowance`. Used in transfers.",
          "params": {
            "allowance": "Amount of tokens a `spender` is allowed to operate with.",
            "needed": "Minimum amount required to perform a transfer.",
            "spender": "Address that may be allowed to operate on tokens without being their owner."
          }
        }
      ],
      "ERC20InsufficientBalance(address,uint256,uint256)": [
        {
          "details": "Indicates an error related to the current `balance` of a `sender`. Used in transfers.",
          "params": {
            "balance": "Current balance for the interacting account.",
            "needed": "Minimum amount required to perform a transfer.",
            "sender": "Address whose tokens are being transferred."
          }
        }
      ],
      "ERC20InvalidApprover(address)": [
        {
          "details": "Indicates a failure with the `approver` of a token to be approved. Used in approvals.",
          "params": {
            "approver": "Address initiating an approval operation."
          }
        }
      ],
      "ERC20InvalidReceiver(address)": [
        {
          "details": "Indicates a failure with the token `receiver`. Used in transfers.",
          "params": {
            "receiver": "Address to which tokens are being transferred."
          }
        }
      ],
      "ERC20InvalidSender(address)": [
        {
          "details": "Indicates a failure with the token `sender`. Used in transfers.",
          "params": {
            "sender": "Address whose tokens are being transferred."
          }
        }
      ],
      "ERC20InvalidSpender(address)": [
        {
          "details": "Indicates a failure with the `spender` to be approved. Used in approvals.",
          "params": {
            "spender": "Address that may be allowed to operate on tokens without being their owner."
          }
        }
      ]
    },
    "events": {
      "Approval(address,address,uint256)": {
        "details": "Emitted when the allowance of a `spender` for an `owner` is set by a call to {approve}. `value` is the new allowance."
      },
      "Transfer(address,address,uint256)": {
        "details": "Emitted when `value` tokens are moved from one account (`from`) to another (`to`). Note that `value` may be zero."
      }
    },
    "kind": "dev",
    "methods": {
      "allowance(address,address)": {
        "details": "See {IERC20-allowance}."
      },
      "approve(address,uint256)": {
        "details": "See {IERC20-approve}. NOTE: If `value` is the maximum `uint256`, the allowance is not updated on `transferFrom`. This is semantically equivalent to an infinite approval. Requirements: - `spender` cannot be the zero address."
      },
      "balanceOf(address)": {
        "details": "See {IERC20-balanceOf}."
      },
      "buyToken(uint256)": {
        "params": {
          "amount": "amount of PTNT to purchase"
        }
      },
      "decimals()": {
        "details": "Returns the number of decimals used to get its user representation. For example, if `decimals` equals `2`, a balance of `505` tokens should be displayed to a user as `5.05` (`505 / 10 ** 2`). Tokens usually opt for a value of 18, imitating the relationship between Ether and Wei. This is the default value returned by this function, unless it's overridden. NOTE: This information is only used for _display_ purposes: it in no way affects any of the arithmetic of the contract, including {IERC20-balanceOf} and {IERC20-transfer}."
      },
      "mint(uint256)": {
        "params": {
          "amount": "amount of PTNT minted"
        }
      },
      "name()": {
        "details": "Returns the name of the token."
      },
      "payFilingFee(address)": {
        "params": {
          "_sender": "address of account which pay the fee"
        }
      },
      "sellToken(uint256)": {
        "params": {
          "amount": "amount of PTNT to sell  "
        }
      },
      "setFilingFee(uint256)": {
        "params": {
          "amount": "new price of filing fee"
        }
      },
      "symbol()": {
        "details": "Returns the symbol of the token, usually a shorter version of the name."
      },
      "totalSupply()": {
        "details": "See {IERC20-totalSupply}."
      },
      "transfer(address,uint256)": {
        "details": "See {IERC20-transfer}. Requirements: - `to` cannot be the zero address. - the caller must have a balance of at least `value`."
      },
      "transferFrom(address,address,uint256)": {
        "details": "See {IERC20-transferFrom}. Emits an {Approval} event indicating the updated allowance. This is not required by the EIP. See the note at the beginning of {ERC20}. NOTE: Does not update the allowance if the current allowance is the maximum `uint256`. Requirements: - `from` and `to` cannot be the zero address. - `from` must have a balance of at least `value`. - the caller must have allowance for ``from``'s tokens of at least `value`."
      }
    },
    "title": "Patent Token contract",
    "version": 1
  },
  "userdoc": {
    "kind": "user",
    "methods": {
      "buyToken(uint256)": {
        "notice": "It allows sender to purchase PTNT"
      },
      "mint(uint256)": {
        "notice": "emit PTNT "
      },
      "payFilingFee(address)": {
        "notice": "Sender pay filingFee to file patent"
      },
      "sellToken(uint256)": {
        "notice": "It allows sender to convert PTNT into ETH"
      },
      "setFilingFee(uint256)": {
        "notice": "set the price of filing fee"
      }
    },
    "notice": "You can use this contract to buy and sell PTNT, see accounts balances",
    "version": 1
  }
}