{
  "contractName": "PatentToken",
  "abi": [
    {
      "inputs": [
        {
          "internalType": "uint256",
          "name": "_filingFee",
          "type": "uint256"
        }
      ],
      "stateMutability": "nonpayable",
      "type": "constructor"
    },
    {
      "inputs": [
        {
          "internalType": "address",
          "name": "spender",
          "type": "address"
        },
        {
          "internalType": "uint256",
          "name": "allowance",
          "type": "uint256"
        },
        {
          "internalType": "uint256",
          "name": "needed",
          "type": "uint256"
        }
      ],
      "name": "ERC20InsufficientAllowance",
      "type": "error"
    },
    {
      "inputs": [
        {
          "internalType": "address",
          "name": "sender",
          "type": "address"
        },
        {
          "internalType": "uint256",
          "name": "balance",
          "type": "uint256"
        },
        {
          "internalType": "uint256",
          "name": "needed",
          "type": "uint256"
        }
      ],
      "name": "ERC20InsufficientBalance",
      "type": "error"
    },
    {
      "inputs": [
        {
          "internalType": "address",
          "name": "approver",
          "type": "address"
        }
      ],
      "name": "ERC20InvalidApprover",
      "type": "error"
    },
    {
      "inputs": [
        {
          "internalType": "address",
          "name": "receiver",
          "type": "address"
        }
      ],
      "name": "ERC20InvalidReceiver",
      "type": "error"
    },
    {
      "inputs": [
        {
          "internalType": "address",
          "name": "sender",
          "type": "address"
        }
      ],
      "name": "ERC20InvalidSender",
      "type": "error"
    },
    {
      "inputs": [
        {
          "internalType": "address",
          "name": "spender",
          "type": "address"
        }
      ],
      "name": "ERC20InvalidSpender",
      "type": "error"
    },
    {
      "anonymous": false,
      "inputs": [
        {
          "indexed": true,
          "internalType": "address",
          "name": "owner",
          "type": "address"
        },
        {
          "indexed": true,
          "internalType": "address",
          "name": "spender",
          "type": "address"
        },
        {
          "indexed": false,
          "internalType": "uint256",
          "name": "value",
          "type": "uint256"
        }
      ],
      "name": "Approval",
      "type": "event"
    },
    {
      "anonymous": false,
      "inputs": [
        {
          "indexed": true,
          "internalType": "address",
          "name": "buyer",
          "type": "address"
        },
        {
          "indexed": false,
          "internalType": "uint256",
          "name": "value",
          "type": "uint256"
        }
      ],
      "name": "BuyPTNT",
      "type": "event"
    },
    {
      "anonymous": false,
      "inputs": [
        {
          "indexed": true,
          "internalType": "address",
          "name": "seller",
          "type": "address"
        },
        {
          "indexed": false,
          "internalType": "uint256",
          "name": "value",
          "type": "uint256"
        }
      ],
      "name": "SellPTNT",
      "type": "event"
    },
    {
      "anonymous": false,
      "inputs": [
        {
          "indexed": true,
          "internalType": "address",
          "name": "from",
          "type": "address"
        },
        {
          "indexed": true,
          "internalType": "address",
          "name": "to",
          "type": "address"
        },
        {
          "indexed": false,
          "internalType": "uint256",
          "name": "value",
          "type": "uint256"
        }
      ],
      "name": "Transfer",
      "type": "event"
    },
    {
      "inputs": [
        {
          "internalType": "address",
          "name": "owner",
          "type": "address"
        },
        {
          "internalType": "address",
          "name": "spender",
          "type": "address"
        }
      ],
      "name": "allowance",
      "outputs": [
        {
          "internalType": "uint256",
          "name": "",
          "type": "uint256"
        }
      ],
      "stateMutability": "view",
      "type": "function"
    },
    {
      "inputs": [
        {
          "internalType": "address",
          "name": "spender",
          "type": "address"
        },
        {
          "internalType": "uint256",
          "name": "value",
          "type": "uint256"
        }
      ],
      "name": "approve",
      "outputs": [
        {
          "internalType": "bool",
          "name": "",
          "type": "bool"
        }
      ],
      "stateMutability": "nonpayable",
      "type": "function"
    },
    {
      "inputs": [
        {
          "internalType": "address",
          "name": "account",
          "type": "address"
        }
      ],
      "name": "balanceOf",
      "outputs": [
        {
          "internalType": "uint256",
          "name": "",
          "type": "uint256"
        }
      ],
      "stateMutability": "view",
      "type": "function"
    },
    {
      "inputs": [],
      "name": "decimals",
      "outputs": [
        {
          "internalType": "uint8",
          "name": "",
          "type": "uint8"
        }
      ],
      "stateMutability": "view",
      "type": "function"
    },
    {
      "inputs": [],
      "name": "filingFee",
      "outputs": [
        {
          "internalType": "uint256",
          "name": "",
          "type": "uint256"
        }
      ],
      "stateMutability": "view",
      "type": "function"
    },
    {
      "inputs": [],
      "name": "name",
      "outputs": [
        {
          "internalType": "string",
          "name": "",
          "type": "string"
        }
      ],
      "stateMutability": "view",
      "type": "function"
    },
    {
      "inputs": [],
      "name": "owner",
      "outputs": [
        {
          "internalType": "address",
          "name": "",
          "type": "address"
        }
      ],
      "stateMutability": "view",
      "type": "function"
    },
    {
      "inputs": [],
      "name": "symbol",
      "outputs": [
        {
          "internalType": "string",
          "name": "",
          "type": "string"
        }
      ],
      "stateMutability": "view",
      "type": "function"
    },
    {
      "inputs": [],
      "name": "totalSupply",
      "outputs": [
        {
          "internalType": "uint256",
          "name": "",
          "type": "uint256"
        }
      ],
      "stateMutability": "view",
      "type": "function"
    },
    {
      "inputs": [
        {
          "internalType": "address",
          "name": "to",
          "type": "address"
        },
        {
          "internalType": "uint256",
          "name": "value",
          "type": "uint256"
        }
      ],
      "name": "transfer",
      "outputs": [
        {
          "internalType": "bool",
          "name": "",
          "type": "bool"
        }
      ],
      "stateMutability": "nonpayable",
      "type": "function"
    },
    {
      "inputs": [
        {
          "internalType": "address",
          "name": "from",
          "type": "address"
        },
        {
          "internalType": "address",
          "name": "to",
          "type": "address"
        },
        {
          "internalType": "uint256",
          "name": "value",
          "type": "uint256"
        }
      ],
      "name": "transferFrom",
      "outputs": [
        {
          "internalType": "bool",
          "name": "",
          "type": "bool"
        }
      ],
      "stateMutability": "nonpayable",
      "type": "function"
    },
    {
      "inputs": [
        {
          "internalType": "uint256",
          "name": "amount",
          "type": "uint256"
        }
      ],
      "name": "buyToken",
      "outputs": [],
      "stateMutability": "payable",
      "type": "function"
    },
    {
      "inputs": [
        {
          "internalType": "uint256",
          "name": "amount",
          "type": "uint256"
        }
      ],
      "name": "sellToken",
      "outputs": [],
      "stateMutability": "nonpayable",
      "type": "function"
    },
    {
      "inputs": [
        {
          "internalType": "address",
          "name": "_sender",
          "type": "address"
        }
      ],
      "name": "payFilingFee",
      "outputs": [
        {
          "internalType": "bool",
          "name": "",
          "type": "bool"
        }
      ],
      "stateMutability": "nonpayable",
      "type": "function"
    },
    {
      "inputs": [
        {
          "internalType": "uint256",
          "name": "amount",
          "type": "uint256"
        }
      ],
      "name": "setFilingFee",
      "outputs": [],
      "stateMutability": "nonpayable",
      "type": "function"
    },
    {
      "inputs": [
        {
          "internalType": "uint256",
          "name": "amount",
          "type": "uint256"
        }
      ],
      "name": "mint",
      "outputs": [],
      "stateMutability": "nonpayable",
      "type": "function"
    }
  ],
  "bytecode": "0x608060405234801562000010575f80fd5b506040516200253338038062002533833981810160405281019062000036919062000468565b6040518060400160405280600b81526020017f506174656e74546f6b656e0000000000000000000000000000000000000000008152506040518060400160405280600481526020017f50544e54000000000000000000000000000000000000000000000000000000008152508160039081620000b39190620006f3565b508060049081620000c59190620006f3565b5050503360055f6101000a81548173ffffffffffffffffffffffffffffffffffffffff021916908373ffffffffffffffffffffffffffffffffffffffff160217905550806006819055506200016f60055f9054906101000a900473ffffffffffffffffffffffffffffffffffffffff16620001456200017660201b60201c565b600a62000153919062000960565b620186a0620001639190620009b0565b6200017e60201b60201c565b5062000af9565b5f6012905090565b5f73ffffffffffffffffffffffffffffffffffffffff168273ffffffffffffffffffffffffffffffffffffffff1603620001f1575f6040517fec442f05000000000000000000000000000000000000000000000000000000008152600401620001e8919062000a3d565b60405180910390fd5b620002045f83836200020860201b60201c565b5050565b5f73ffffffffffffffffffffffffffffffffffffffff168373ffffffffffffffffffffffffffffffffffffffff16036200025c578060025f8282546200024f919062000a58565b925050819055506200032d565b5f805f8573ffffffffffffffffffffffffffffffffffffffff1673ffffffffffffffffffffffffffffffffffffffff1681526020019081526020015f2054905081811015620002e8578381836040517fe450d38c000000000000000000000000000000000000000000000000000000008152600401620002df9392919062000aa3565b60405180910390fd5b8181035f808673ffffffffffffffffffffffffffffffffffffffff1673ffffffffffffffffffffffffffffffffffffffff1681526020019081526020015f2081905550505b5f73ffffffffffffffffffffffffffffffffffffffff168273ffffffffffffffffffffffffffffffffffffffff160362000376578060025f8282540392505081905550620003c0565b805f808473ffffffffffffffffffffffffffffffffffffffff1673ffffffffffffffffffffffffffffffffffffffff1681526020019081526020015f205f82825401925050819055505b8173ffffffffffffffffffffffffffffffffffffffff168373ffffffffffffffffffffffffffffffffffffffff167fddf252ad1be2c89b69c2b068fc378daa952ba7f163c4a11628f55a4df523b3ef836040516200041f919062000ade565b60405180910390a3505050565b5f80fd5b5f819050919050565b620004448162000430565b81146200044f575f80fd5b50565b5f81519050620004628162000439565b92915050565b5f6020828403121562000480576200047f6200042c565b5b5f6200048f8482850162000452565b91505092915050565b5f81519050919050565b7f4e487b71000000000000000000000000000000000000000000000000000000005f52604160045260245ffd5b7f4e487b71000000000000000000000000000000000000000000000000000000005f52602260045260245ffd5b5f60028204905060018216806200051457607f821691505b6020821081036200052a5762000529620004cf565b5b50919050565b5f819050815f5260205f209050919050565b5f6020601f8301049050919050565b5f82821b905092915050565b5f600883026200058e7fffffffffffffffffffffffffffffffffffffffffffffffffffffffffffffffff8262000551565b6200059a868362000551565b95508019841693508086168417925050509392505050565b5f819050919050565b5f620005db620005d5620005cf8462000430565b620005b2565b62000430565b9050919050565b5f819050919050565b620005f683620005bb565b6200060e6200060582620005e2565b8484546200055d565b825550505050565b5f90565b6200062462000616565b62000631818484620005eb565b505050565b5b8181101562000658576200064c5f826200061a565b60018101905062000637565b5050565b601f821115620006a757620006718162000530565b6200067c8462000542565b810160208510156200068c578190505b620006a46200069b8562000542565b83018262000636565b50505b505050565b5f82821c905092915050565b5f620006c95f1984600802620006ac565b1980831691505092915050565b5f620006e38383620006b8565b9150826002028217905092915050565b620006fe8262000498565b67ffffffffffffffff8111156200071a5762000719620004a2565b5b620007268254620004fc565b620007338282856200065c565b5f60209050601f83116001811462000769575f841562000754578287015190505b620007608582620006d6565b865550620007cf565b601f198416620007798662000530565b5f5b82811015620007a2578489015182556001820191506020850194506020810190506200077b565b86831015620007c25784890151620007be601f891682620006b8565b8355505b6001600288020188555050505b505050505050565b7f4e487b71000000000000000000000000000000000000000000000000000000005f52601160045260245ffd5b5f8160011c9050919050565b5f808291508390505b60018511156200086157808604811115620008395762000838620007d7565b5b6001851615620008495780820291505b8081029050620008598562000804565b945062000819565b94509492505050565b5f826200087b57600190506200094d565b816200088a575f90506200094d565b8160018114620008a35760028114620008ae57620008e4565b60019150506200094d565b60ff841115620008c357620008c2620007d7565b5b8360020a915084821115620008dd57620008dc620007d7565b5b506200094d565b5060208310610133831016604e8410600b84101617156200091e5782820a905083811115620009185762000917620007d7565b5b6200094d565b6200092d848484600162000810565b92509050818404811115620009475762000946620007d7565b5b81810290505b9392505050565b5f60ff82169050919050565b5f6200096c8262000430565b9150620009798362000954565b9250620009a87fffffffffffffffffffffffffffffffffffffffffffffffffffffffffffffffff84846200086a565b905092915050565b5f620009bc8262000430565b9150620009c98362000430565b9250828202620009d98162000430565b91508282048414831517620009f357620009f2620007d7565b5b5092915050565b5f73ffffffffffffffffffffffffffffffffffffffff82169050919050565b5f62000a2582620009fa565b9050919050565b62000a378162000a19565b82525050565b5f60208201905062000a525f83018462000a2c565b92915050565b5f62000a648262000430565b915062000a718362000430565b925082820190508082111562000a8c5762000a8b620007d7565b5b92915050565b62000a9d8162000430565b82525050565b5f60608201905062000ab85f83018662000a2c565b62000ac7602083018562000a92565b62000ad6604083018462000a92565b949350505050565b5f60208201905062000af35f83018462000a92565b92915050565b611a2c8062000b075f395ff3fe6080604052600436106100f2575f3560e01c806373169cf81161008957806399f0eed51161005857806399f0eed514610326578063a0712d681461034e578063a9059cbb14610376578063dd62ed3e146103b2576100f2565b806373169cf81461026c5780637f5db3e8146102965780638da5cb5b146102d257806395d89b41146102fc576100f2565b806323b872dd116100c557806323b872dd146101ae5780632d296bf1146101ea578063313ce5671461020657806370a0823114610230576100f2565b806306fdde03146100f6578063095ea7b31461012057806318160ddd1461015c5780632397e4d714610186575b5f80fd5b348015610101575f80fd5b5061010a6103ee565b60405161011791906111c8565b60405180910390f35b34801561012b575f80fd5b5061014660048036038101906101419190611279565b61047e565b60405161015391906112d1565b60405180910390f35b348015610167575f80fd5b506101706104a0565b60405161017d91906112f9565b60405180910390f35b348015610191575f80fd5b506101ac60048036038101906101a79190611312565b6104a9565b005b3480156101b9575f80fd5b506101d460048036038101906101cf919061133d565b610619565b6040516101e191906112d1565b60405180910390f35b61020460048036038101906101ff9190611312565b610647565b005b348015610211575f80fd5b5061021a610795565b60405161022791906113a8565b60405180910390f35b34801561023b575f80fd5b50610256600480360381019061025191906113c1565b61079d565b60405161026391906112f9565b60405180910390f35b348015610277575f80fd5b506102806107e2565b60405161028d91906112f9565b60405180910390f35b3480156102a1575f80fd5b506102bc60048036038101906102b791906113c1565b6107e8565b6040516102c991906112d1565b60405180910390f35b3480156102dd575f80fd5b506102e661086c565b6040516102f391906113fb565b60405180910390f35b348015610307575f80fd5b50610310610891565b60405161031d91906111c8565b60405180910390f35b348015610331575f80fd5b5061034c60048036038101906103479190611312565b610921565b005b348015610359575f80fd5b50610374600480360381019061036f9190611312565b6109ba565b005b348015610381575f80fd5b5061039c60048036038101906103979190611279565b610a98565b6040516103a991906112d1565b60405180910390f35b3480156103bd575f80fd5b506103d860048036038101906103d39190611414565b610aba565b6040516103e591906112f9565b60405180910390f35b6060600380546103fd9061147f565b80601f01602080910402602001604051908101604052809291908181526020018280546104299061147f565b80156104745780601f1061044b57610100808354040283529160200191610474565b820191905f5260205f20905b81548152906001019060200180831161045757829003601f168201915b5050505050905090565b5f80610488610b3c565b9050610495818585610b43565b600191505092915050565b5f600254905090565b5f81116104eb576040517f08c379a00000000000000000000000000000000000000000000000000000000081526004016104e2906114f9565b60405180910390fd5b5f6104f4610795565b600a6105009190611673565b8261050b91906116bd565b9050806105173361079d565b11610557576040517f08c379a000000000000000000000000000000000000000000000000000000000815260040161054e9061176e565b60405180910390fd5b3373ffffffffffffffffffffffffffffffffffffffff167f9fef8f371a1f201ae0bdcba6e201607258bd7d95ff1d21f0ba2b45d42d90a9ff8260405161059d91906112f9565b60405180910390a23373ffffffffffffffffffffffffffffffffffffffff166108fc8290811502906040515f60405180830381858888f193505050501580156105e8573d5f803e3d5ffd5b506106153360055f9054906101000a900473ffffffffffffffffffffffffffffffffffffffff1683610b55565b5050565b5f80610623610b3c565b9050610630858285610c45565b61063b858585610b55565b60019150509392505050565b5f610650610795565b600a61065c9190611673565b8261066791906116bd565b90508061069460055f9054906101000a900473ffffffffffffffffffffffffffffffffffffffff1661079d565b10156106d5576040517f08c379a00000000000000000000000000000000000000000000000000000000081526004016106cc906117d6565b60405180910390fd5b803411610717576040517f08c379a000000000000000000000000000000000000000000000000000000000815260040161070e9061183e565b60405180910390fd5b3373ffffffffffffffffffffffffffffffffffffffff167f67e144813a3bb1a1aa250e38ebaad29e0f91d69b08e28fbd81c88e21da8166d08260405161075d91906112f9565b60405180910390a261079160055f9054906101000a900473ffffffffffffffffffffffffffffffffffffffff163383610b55565b5050565b5f6012905090565b5f805f8373ffffffffffffffffffffffffffffffffffffffff1673ffffffffffffffffffffffffffffffffffffffff1681526020019081526020015f20549050919050565b60065481565b5f6006546107f58361079d565b11610835576040517f08c379a000000000000000000000000000000000000000000000000000000000815260040161082c906118cc565b60405180910390fd5b6108638260055f9054906101000a900473ffffffffffffffffffffffffffffffffffffffff16600654610b55565b60019050919050565b60055f9054906101000a900473ffffffffffffffffffffffffffffffffffffffff1681565b6060600480546108a09061147f565b80601f01602080910402602001604051908101604052809291908181526020018280546108cc9061147f565b80156109175780601f106108ee57610100808354040283529160200191610917565b820191905f5260205f20905b8154815290600101906020018083116108fa57829003601f168201915b5050505050905090565b60055f9054906101000a900473ffffffffffffffffffffffffffffffffffffffff1673ffffffffffffffffffffffffffffffffffffffff163373ffffffffffffffffffffffffffffffffffffffff16146109b0576040517f08c379a00000000000000000000000000000000000000000000000000000000081526004016109a790611934565b60405180910390fd5b8060068190555050565b60055f9054906101000a900473ffffffffffffffffffffffffffffffffffffffff1673ffffffffffffffffffffffffffffffffffffffff163373ffffffffffffffffffffffffffffffffffffffff1614610a49576040517f08c379a0000000000000000000000000000000000000000000000000000000008152600401610a4090611934565b60405180910390fd5b610a9560055f9054906101000a900473ffffffffffffffffffffffffffffffffffffffff16610a76610795565b600a610a829190611952565b60ff1683610a9091906116bd565b610cd7565b50565b5f80610aa2610b3c565b9050610aaf818585610b55565b600191505092915050565b5f60015f8473ffffffffffffffffffffffffffffffffffffffff1673ffffffffffffffffffffffffffffffffffffffff1681526020019081526020015f205f8373ffffffffffffffffffffffffffffffffffffffff1673ffffffffffffffffffffffffffffffffffffffff1681526020019081526020015f2054905092915050565b5f33905090565b610b508383836001610d56565b505050565b5f73ffffffffffffffffffffffffffffffffffffffff168373ffffffffffffffffffffffffffffffffffffffff1603610bc5575f6040517f96c6fd1e000000000000000000000000000000000000000000000000000000008152600401610bbc91906113fb565b60405180910390fd5b5f73ffffffffffffffffffffffffffffffffffffffff168273ffffffffffffffffffffffffffffffffffffffff1603610c35575f6040517fec442f05000000000000000000000000000000000000000000000000000000008152600401610c2c91906113fb565b60405180910390fd5b610c40838383610f25565b505050565b5f610c508484610aba565b90507fffffffffffffffffffffffffffffffffffffffffffffffffffffffffffffffff8114610cd15781811015610cc2578281836040517ffb8f41b2000000000000000000000000000000000000000000000000000000008152600401610cb99392919061198e565b60405180910390fd5b610cd084848484035f610d56565b5b50505050565b5f73ffffffffffffffffffffffffffffffffffffffff168273ffffffffffffffffffffffffffffffffffffffff1603610d47575f6040517fec442f05000000000000000000000000000000000000000000000000000000008152600401610d3e91906113fb565b60405180910390fd5b610d525f8383610f25565b5050565b5f73ffffffffffffffffffffffffffffffffffffffff168473ffffffffffffffffffffffffffffffffffffffff1603610dc6575f6040517fe602df05000000000000000000000000000000000000000000000000000000008152600401610dbd91906113fb565b60405180910390fd5b5f73ffffffffffffffffffffffffffffffffffffffff168373ffffffffffffffffffffffffffffffffffffffff1603610e36575f6040517f94280d62000000000000000000000000000000000000000000000000000000008152600401610e2d91906113fb565b60405180910390fd5b8160015f8673ffffffffffffffffffffffffffffffffffffffff1673ffffffffffffffffffffffffffffffffffffffff1681526020019081526020015f205f8573ffffffffffffffffffffffffffffffffffffffff1673ffffffffffffffffffffffffffffffffffffffff1681526020019081526020015f20819055508015610f1f578273ffffffffffffffffffffffffffffffffffffffff168473ffffffffffffffffffffffffffffffffffffffff167f8c5be1e5ebec7d5bd14f71427d1e84f3dd0314c0f7b2291e5b200ac8c7c3b92584604051610f1691906112f9565b60405180910390a35b50505050565b5f73ffffffffffffffffffffffffffffffffffffffff168373ffffffffffffffffffffffffffffffffffffffff1603610f75578060025f828254610f6991906119c3565b92505081905550611043565b5f805f8573ffffffffffffffffffffffffffffffffffffffff1673ffffffffffffffffffffffffffffffffffffffff1681526020019081526020015f2054905081811015610ffe578381836040517fe450d38c000000000000000000000000000000000000000000000000000000008152600401610ff59392919061198e565b60405180910390fd5b8181035f808673ffffffffffffffffffffffffffffffffffffffff1673ffffffffffffffffffffffffffffffffffffffff1681526020019081526020015f2081905550505b5f73ffffffffffffffffffffffffffffffffffffffff168273ffffffffffffffffffffffffffffffffffffffff160361108a578060025f82825403925050819055506110d4565b805f808473ffffffffffffffffffffffffffffffffffffffff1673ffffffffffffffffffffffffffffffffffffffff1681526020019081526020015f205f82825401925050819055505b8173ffffffffffffffffffffffffffffffffffffffff168373ffffffffffffffffffffffffffffffffffffffff167fddf252ad1be2c89b69c2b068fc378daa952ba7f163c4a11628f55a4df523b3ef8360405161113191906112f9565b60405180910390a3505050565b5f81519050919050565b5f82825260208201905092915050565b5f5b8381101561117557808201518184015260208101905061115a565b5f8484015250505050565b5f601f19601f8301169050919050565b5f61119a8261113e565b6111a48185611148565b93506111b4818560208601611158565b6111bd81611180565b840191505092915050565b5f6020820190508181035f8301526111e08184611190565b905092915050565b5f80fd5b5f73ffffffffffffffffffffffffffffffffffffffff82169050919050565b5f611215826111ec565b9050919050565b6112258161120b565b811461122f575f80fd5b50565b5f813590506112408161121c565b92915050565b5f819050919050565b61125881611246565b8114611262575f80fd5b50565b5f813590506112738161124f565b92915050565b5f806040838503121561128f5761128e6111e8565b5b5f61129c85828601611232565b92505060206112ad85828601611265565b9150509250929050565b5f8115159050919050565b6112cb816112b7565b82525050565b5f6020820190506112e45f8301846112c2565b92915050565b6112f381611246565b82525050565b5f60208201905061130c5f8301846112ea565b92915050565b5f60208284031215611327576113266111e8565b5b5f61133484828501611265565b91505092915050565b5f805f60608486031215611354576113536111e8565b5b5f61136186828701611232565b935050602061137286828701611232565b925050604061138386828701611265565b9150509250925092565b5f60ff82169050919050565b6113a28161138d565b82525050565b5f6020820190506113bb5f830184611399565b92915050565b5f602082840312156113d6576113d56111e8565b5b5f6113e384828501611232565b91505092915050565b6113f58161120b565b82525050565b5f60208201905061140e5f8301846113ec565b92915050565b5f806040838503121561142a576114296111e8565b5b5f61143785828601611232565b925050602061144885828601611232565b9150509250929050565b7f4e487b71000000000000000000000000000000000000000000000000000000005f52602260045260245ffd5b5f600282049050600182168061149657607f821691505b6020821081036114a9576114a8611452565b5b50919050565b7f4e6f20616d6f756e74206f662050544e542061726520737065636966696564005f82015250565b5f6114e3601f83611148565b91506114ee826114af565b602082019050919050565b5f6020820190508181035f830152611510816114d7565b9050919050565b7f4e487b71000000000000000000000000000000000000000000000000000000005f52601160045260245ffd5b5f8160011c9050919050565b5f808291508390505b60018511156115995780860481111561157557611574611517565b5b60018516156115845780820291505b808102905061159285611544565b9450611559565b94509492505050565b5f826115b1576001905061166c565b816115be575f905061166c565b81600181146115d457600281146115de5761160d565b600191505061166c565b60ff8411156115f0576115ef611517565b5b8360020a91508482111561160757611606611517565b5b5061166c565b5060208310610133831016604e8410600b84101617156116425782820a90508381111561163d5761163c611517565b5b61166c565b61164f8484846001611550565b9250905081840481111561166657611665611517565b5b81810290505b9392505050565b5f61167d82611246565b91506116888361138d565b92506116b57fffffffffffffffffffffffffffffffffffffffffffffffffffffffffffffffff84846115a2565b905092915050565b5f6116c782611246565b91506116d283611246565b92508282026116e081611246565b915082820484148315176116f7576116f6611517565b5b5092915050565b7f596f7520646f206e6f742068617665207468617420616d6f756e74206f6620505f8201527f544e540000000000000000000000000000000000000000000000000000000000602082015250565b5f611758602383611148565b9150611763826116fe565b604082019050919050565b5f6020820190508181035f8301526117858161174c565b9050919050565b7f4e6f7420656e6f7567682050544e5420696e207468652065636f6e6f6d7900005f82015250565b5f6117c0601e83611148565b91506117cb8261178c565b602082019050919050565b5f6020820190508181035f8301526117ed816117b4565b9050919050565b7f4e6f7420656e6f7567682045544820746f206275792050544e540000000000005f82015250565b5f611828601a83611148565b9150611833826117f4565b602082019050919050565b5f6020820190508181035f8301526118558161181c565b9050919050565b7f4e6f7420656e6f7567682050544e5420746f207061792066696c696e672066655f8201527f6500000000000000000000000000000000000000000000000000000000000000602082015250565b5f6118b6602183611148565b91506118c18261185c565b604082019050919050565b5f6020820190508181035f8301526118e3816118aa565b9050919050565b7f4f6e6c79206f776e65722063616e2063616c6c20746869732e000000000000005f82015250565b5f61191e601983611148565b9150611929826118ea565b602082019050919050565b5f6020820190508181035f83015261194b81611912565b9050919050565b5f61195c8261138d565b91506119678361138d565b92508282026119758161138d565b915080821461198757611986611517565b5b5092915050565b5f6060820190506119a15f8301866113ec565b6119ae60208301856112ea565b6119bb60408301846112ea565b949350505050565b5f6119cd82611246565b91506119d883611246565b92508282019050808211156119f0576119ef611517565b5b9291505056fea2646970667358221220aae0e64b7d6c7441d55685e22335c10b2b736f1d670451a3ae4de3891b0b469f64736f6c63430008140033",
  "immutableReferences": {},
  "source": "// SPDX-License-Identifier: MIT\r\npragma solidity >=0.4.22 <0.9.0;\r\n\r\nimport \"@openzeppelin/contracts/token/ERC20/ERC20.sol\";\r\n\r\n\r\n/// @title Patent Token contract\r\n/// @author Carolina Proietti, Edoardo Giuggioloni, Paolo Marchignoli, Ruben Seror \r\n/// @notice You can use this contract to buy and sell PTNT, see accounts balances\r\ncontract PatentToken is ERC20{\r\n\r\n    address public owner;\r\n    uint public filingFee;\r\n    \r\n    event BuyPTNT(address indexed buyer, uint value);\r\n    event SellPTNT(address indexed seller, uint value);\r\n\r\n    /// @notice  throws an error if the msg.sender is not the owner.\r\n    modifier onlyOwner() {\r\n        require(msg.sender == owner, \"Only owner can call this.\");\r\n        _;\r\n    }\r\n\r\n    constructor(uint _filingFee)\r\n        ERC20(\"PatentToken\", \"PTNT\") {\r\n            owner = msg.sender;\r\n            filingFee = _filingFee;\r\n            _mint(owner, 100000 * (10 ** decimals()));\r\n        }\r\n    ///@notice It allows sender to purchase PTNT\r\n    ///@param amount amount of PTNT to purchase\r\n    function buyToken(uint amount) public payable{\r\n        uint ptnt = amount * (10 ** decimals()); \r\n        require(balanceOf(owner) >= ptnt, 'Not enough PTNT in the economy');\r\n        require(msg.value > ptnt,'Not enough ETH to buy PTNT');\r\n        emit BuyPTNT(msg.sender, ptnt);\r\n        _transfer(owner,msg.sender,ptnt);\r\n    }\r\n\r\n    ///@notice It allows sender to convert PTNT into ETH\r\n    ///@param amount amount of PTNT to sell  \r\n    function sellToken(uint amount) public{\r\n        require(amount > 0, 'No amount of PTNT are specified');\r\n        uint ptnt = amount * (10 ** decimals());\r\n        require(balanceOf(msg.sender) > ptnt, 'You do not have that amount of PTNT');\r\n        emit SellPTNT(msg.sender,ptnt);\r\n        payable(msg.sender).transfer(ptnt);\r\n        _transfer(msg.sender, owner, ptnt);\r\n\r\n    }\r\n\r\n    ///@notice Sender pay filingFee to file patent\r\n    ///@param _sender address of account which pay the fee\r\n    function payFilingFee(address _sender) external returns(bool){\r\n        require(balanceOf(_sender)> filingFee,'Not enough PTNT to pay filing fee');\r\n        _transfer(_sender, owner, filingFee);\r\n        return true;\r\n    }\r\n\r\n    ///@notice set the price of filing fee\r\n    ///@param amount new price of filing fee\r\n    function setFilingFee(uint amount) public onlyOwner{\r\n        filingFee = amount;\r\n    }\r\n\r\n    ///@notice emit PTNT \r\n    ///@param amount amount of PTNT minted\r\n    function mint(uint amount) public onlyOwner{\r\n        _mint(owner, amount * (10 * decimals()));\r\n    }\r\n\r\n}",
  "sourcePath": "C:\\Users\\nosen\\Documents\\PatentLink - Blockchain project\\contracts\\PatentToken.sol",
  "compiler": {
    "name": "solc",
    "version": "0.8.20+commit.a1b79de6.Emscripten.clang"
  },
  "schemaVersion": "3.4.16",
  "updatedAt": "2024-01-05T17:24:32.987Z",
  "devdoc": {
    "author": "Carolina Proietti, Edoardo Giuggioloni, Paolo Marchignoli, Ruben Seror ",
    "errors": {
      "ERC20InsufficientAllowance(address,uint256,uint256)": [
        {
          "details": "Indicates a failure with the `spender`s `allowance`. Used in transfers.",
          "params": {
            "allowance": "Amount of tokens a `spender` is allowed to operate with.",
            "needed": "Minimum amount required to perform a transfer.",
            "spender": "Address that may be allowed to operate on tokens without being their owner."
          }
        }
      ],
      "ERC20InsufficientBalance(address,uint256,uint256)": [
        {
          "details": "Indicates an error related to the current `balance` of a `sender`. Used in transfers.",
          "params": {
            "balance": "Current balance for the interacting account.",
            "needed": "Minimum amount required to perform a transfer.",
            "sender": "Address whose tokens are being transferred."
          }
        }
      ],
      "ERC20InvalidApprover(address)": [
        {
          "details": "Indicates a failure with the `approver` of a token to be approved. Used in approvals.",
          "params": {
            "approver": "Address initiating an approval operation."
          }
        }
      ],
      "ERC20InvalidReceiver(address)": [
        {
          "details": "Indicates a failure with the token `receiver`. Used in transfers.",
          "params": {
            "receiver": "Address to which tokens are being transferred."
          }
        }
      ],
      "ERC20InvalidSender(address)": [
        {
          "details": "Indicates a failure with the token `sender`. Used in transfers.",
          "params": {
            "sender": "Address whose tokens are being transferred."
          }
        }
      ],
      "ERC20InvalidSpender(address)": [
        {
          "details": "Indicates a failure with the `spender` to be approved. Used in approvals.",
          "params": {
            "spender": "Address that may be allowed to operate on tokens without being their owner."
          }
        }
      ]
    },
    "events": {
      "Approval(address,address,uint256)": {
        "details": "Emitted when the allowance of a `spender` for an `owner` is set by a call to {approve}. `value` is the new allowance."
      },
      "Transfer(address,address,uint256)": {
        "details": "Emitted when `value` tokens are moved from one account (`from`) to another (`to`). Note that `value` may be zero."
      }
    },
    "kind": "dev",
    "methods": {
      "allowance(address,address)": {
        "details": "See {IERC20-allowance}."
      },
      "approve(address,uint256)": {
        "details": "See {IERC20-approve}. NOTE: If `value` is the maximum `uint256`, the allowance is not updated on `transferFrom`. This is semantically equivalent to an infinite approval. Requirements: - `spender` cannot be the zero address."
      },
      "balanceOf(address)": {
        "details": "See {IERC20-balanceOf}."
      },
      "buyToken(uint256)": {
        "params": {
          "amount": "amount of PTNT to purchase"
        }
      },
      "decimals()": {
        "details": "Returns the number of decimals used to get its user representation. For example, if `decimals` equals `2`, a balance of `505` tokens should be displayed to a user as `5.05` (`505 / 10 ** 2`). Tokens usually opt for a value of 18, imitating the relationship between Ether and Wei. This is the default value returned by this function, unless it's overridden. NOTE: This information is only used for _display_ purposes: it in no way affects any of the arithmetic of the contract, including {IERC20-balanceOf} and {IERC20-transfer}."
      },
      "mint(uint256)": {
        "params": {
          "amount": "amount of PTNT minted"
        }
      },
      "name()": {
        "details": "Returns the name of the token."
      },
      "payFilingFee(address)": {
        "params": {
          "_sender": "address of account which pay the fee"
        }
      },
      "sellToken(uint256)": {
        "params": {
          "amount": "amount of PTNT to sell  "
        }
      },
      "setFilingFee(uint256)": {
        "params": {
          "amount": "new price of filing fee"
        }
      },
      "symbol()": {
        "details": "Returns the symbol of the token, usually a shorter version of the name."
      },
      "totalSupply()": {
        "details": "See {IERC20-totalSupply}."
      },
      "transfer(address,uint256)": {
        "details": "See {IERC20-transfer}. Requirements: - `to` cannot be the zero address. - the caller must have a balance of at least `value`."
      },
      "transferFrom(address,address,uint256)": {
        "details": "See {IERC20-transferFrom}. Emits an {Approval} event indicating the updated allowance. This is not required by the EIP. See the note at the beginning of {ERC20}. NOTE: Does not update the allowance if the current allowance is the maximum `uint256`. Requirements: - `from` and `to` cannot be the zero address. - `from` must have a balance of at least `value`. - the caller must have allowance for ``from``'s tokens of at least `value`."
      }
    },
    "title": "Patent Token contract",
    "version": 1
  },
  "userdoc": {
    "kind": "user",
    "methods": {
      "buyToken(uint256)": {
        "notice": "It allows sender to purchase PTNT"
      },
      "mint(uint256)": {
        "notice": "emit PTNT "
      },
      "payFilingFee(address)": {
        "notice": "Sender pay filingFee to file patent"
      },
      "sellToken(uint256)": {
        "notice": "It allows sender to convert PTNT into ETH"
      },
      "setFilingFee(uint256)": {
        "notice": "set the price of filing fee"
      }
    },
    "notice": "You can use this contract to buy and sell PTNT, see accounts balances",
    "version": 1
  }
}