{
  "contractName": "PatentNFT",
  "abi": [
    {
      "inputs": [
        {
          "internalType": "address",
          "name": "tokenAddress",
          "type": "address"
        }
      ],
      "stateMutability": "nonpayable",
      "type": "constructor"
    },
    {
      "inputs": [
        {
          "internalType": "address",
          "name": "sender",
          "type": "address"
        },
        {
          "internalType": "uint256",
          "name": "tokenId",
          "type": "uint256"
        },
        {
          "internalType": "address",
          "name": "owner",
          "type": "address"
        }
      ],
      "name": "ERC721IncorrectOwner",
      "type": "error"
    },
    {
      "inputs": [
        {
          "internalType": "address",
          "name": "operator",
          "type": "address"
        },
        {
          "internalType": "uint256",
          "name": "tokenId",
          "type": "uint256"
        }
      ],
      "name": "ERC721InsufficientApproval",
      "type": "error"
    },
    {
      "inputs": [
        {
          "internalType": "address",
          "name": "approver",
          "type": "address"
        }
      ],
      "name": "ERC721InvalidApprover",
      "type": "error"
    },
    {
      "inputs": [
        {
          "internalType": "address",
          "name": "operator",
          "type": "address"
        }
      ],
      "name": "ERC721InvalidOperator",
      "type": "error"
    },
    {
      "inputs": [
        {
          "internalType": "address",
          "name": "owner",
          "type": "address"
        }
      ],
      "name": "ERC721InvalidOwner",
      "type": "error"
    },
    {
      "inputs": [
        {
          "internalType": "address",
          "name": "receiver",
          "type": "address"
        }
      ],
      "name": "ERC721InvalidReceiver",
      "type": "error"
    },
    {
      "inputs": [
        {
          "internalType": "address",
          "name": "sender",
          "type": "address"
        }
      ],
      "name": "ERC721InvalidSender",
      "type": "error"
    },
    {
      "inputs": [
        {
          "internalType": "uint256",
          "name": "tokenId",
          "type": "uint256"
        }
      ],
      "name": "ERC721NonexistentToken",
      "type": "error"
    },
    {
      "anonymous": false,
      "inputs": [
        {
          "indexed": true,
          "internalType": "address",
          "name": "owner",
          "type": "address"
        },
        {
          "indexed": true,
          "internalType": "address",
          "name": "approved",
          "type": "address"
        },
        {
          "indexed": true,
          "internalType": "uint256",
          "name": "tokenId",
          "type": "uint256"
        }
      ],
      "name": "Approval",
      "type": "event"
    },
    {
      "anonymous": false,
      "inputs": [
        {
          "indexed": true,
          "internalType": "address",
          "name": "owner",
          "type": "address"
        },
        {
          "indexed": true,
          "internalType": "address",
          "name": "operator",
          "type": "address"
        },
        {
          "indexed": false,
          "internalType": "bool",
          "name": "approved",
          "type": "bool"
        }
      ],
      "name": "ApprovalForAll",
      "type": "event"
    },
    {
      "anonymous": false,
      "inputs": [
        {
          "indexed": false,
          "internalType": "uint256",
          "name": "_fromTokenId",
          "type": "uint256"
        },
        {
          "indexed": false,
          "internalType": "uint256",
          "name": "_toTokenId",
          "type": "uint256"
        }
      ],
      "name": "BatchMetadataUpdate",
      "type": "event"
    },
    {
      "anonymous": false,
      "inputs": [
        {
          "indexed": false,
          "internalType": "uint256",
          "name": "_tokenId",
          "type": "uint256"
        }
      ],
      "name": "MetadataUpdate",
      "type": "event"
    },
    {
      "anonymous": false,
      "inputs": [
        {
          "indexed": true,
          "internalType": "uint256",
          "name": "patentId",
          "type": "uint256"
        },
        {
          "indexed": false,
          "internalType": "address",
          "name": "from",
          "type": "address"
        },
        {
          "indexed": false,
          "internalType": "address",
          "name": "to",
          "type": "address"
        }
      ],
      "name": "PatentAssignment",
      "type": "event"
    },
    {
      "anonymous": false,
      "inputs": [
        {
          "indexed": true,
          "internalType": "uint256",
          "name": "patentId",
          "type": "uint256"
        },
        {
          "indexed": false,
          "internalType": "address",
          "name": "owner",
          "type": "address"
        }
      ],
      "name": "PatentFiled",
      "type": "event"
    },
    {
      "anonymous": false,
      "inputs": [
        {
          "indexed": true,
          "internalType": "address",
          "name": "from",
          "type": "address"
        },
        {
          "indexed": true,
          "internalType": "address",
          "name": "to",
          "type": "address"
        },
        {
          "indexed": true,
          "internalType": "uint256",
          "name": "tokenId",
          "type": "uint256"
        }
      ],
      "name": "Transfer",
      "type": "event"
    },
    {
      "inputs": [
        {
          "internalType": "address",
          "name": "to",
          "type": "address"
        },
        {
          "internalType": "uint256",
          "name": "tokenId",
          "type": "uint256"
        }
      ],
      "name": "approve",
      "outputs": [],
      "stateMutability": "nonpayable",
      "type": "function"
    },
    {
      "inputs": [
        {
          "internalType": "address",
          "name": "owner",
          "type": "address"
        }
      ],
      "name": "balanceOf",
      "outputs": [
        {
          "internalType": "uint256",
          "name": "",
          "type": "uint256"
        }
      ],
      "stateMutability": "view",
      "type": "function"
    },
    {
      "inputs": [
        {
          "internalType": "uint256",
          "name": "tokenId",
          "type": "uint256"
        }
      ],
      "name": "getApproved",
      "outputs": [
        {
          "internalType": "address",
          "name": "",
          "type": "address"
        }
      ],
      "stateMutability": "view",
      "type": "function"
    },
    {
      "inputs": [
        {
          "internalType": "address",
          "name": "owner",
          "type": "address"
        },
        {
          "internalType": "address",
          "name": "operator",
          "type": "address"
        }
      ],
      "name": "isApprovedForAll",
      "outputs": [
        {
          "internalType": "bool",
          "name": "",
          "type": "bool"
        }
      ],
      "stateMutability": "view",
      "type": "function"
    },
    {
      "inputs": [],
      "name": "name",
      "outputs": [
        {
          "internalType": "string",
          "name": "",
          "type": "string"
        }
      ],
      "stateMutability": "view",
      "type": "function"
    },
    {
      "inputs": [
        {
          "internalType": "uint256",
          "name": "tokenId",
          "type": "uint256"
        }
      ],
      "name": "ownerOf",
      "outputs": [
        {
          "internalType": "address",
          "name": "",
          "type": "address"
        }
      ],
      "stateMutability": "view",
      "type": "function"
    },
    {
      "inputs": [
        {
          "internalType": "uint256",
          "name": "",
          "type": "uint256"
        }
      ],
      "name": "patents",
      "outputs": [
        {
          "internalType": "bool",
          "name": "forSale",
          "type": "bool"
        },
        {
          "internalType": "uint256",
          "name": "price",
          "type": "uint256"
        },
        {
          "internalType": "uint256",
          "name": "timestamp",
          "type": "uint256"
        },
        {
          "internalType": "uint256",
          "name": "deadline",
          "type": "uint256"
        }
      ],
      "stateMutability": "view",
      "type": "function"
    },
    {
      "inputs": [
        {
          "internalType": "address",
          "name": "from",
          "type": "address"
        },
        {
          "internalType": "address",
          "name": "to",
          "type": "address"
        },
        {
          "internalType": "uint256",
          "name": "tokenId",
          "type": "uint256"
        }
      ],
      "name": "safeTransferFrom",
      "outputs": [],
      "stateMutability": "nonpayable",
      "type": "function"
    },
    {
      "inputs": [
        {
          "internalType": "address",
          "name": "from",
          "type": "address"
        },
        {
          "internalType": "address",
          "name": "to",
          "type": "address"
        },
        {
          "internalType": "uint256",
          "name": "tokenId",
          "type": "uint256"
        },
        {
          "internalType": "bytes",
          "name": "data",
          "type": "bytes"
        }
      ],
      "name": "safeTransferFrom",
      "outputs": [],
      "stateMutability": "nonpayable",
      "type": "function"
    },
    {
      "inputs": [
        {
          "internalType": "address",
          "name": "operator",
          "type": "address"
        },
        {
          "internalType": "bool",
          "name": "approved",
          "type": "bool"
        }
      ],
      "name": "setApprovalForAll",
      "outputs": [],
      "stateMutability": "nonpayable",
      "type": "function"
    },
    {
      "inputs": [
        {
          "internalType": "bytes4",
          "name": "interfaceId",
          "type": "bytes4"
        }
      ],
      "name": "supportsInterface",
      "outputs": [
        {
          "internalType": "bool",
          "name": "",
          "type": "bool"
        }
      ],
      "stateMutability": "view",
      "type": "function"
    },
    {
      "inputs": [],
      "name": "symbol",
      "outputs": [
        {
          "internalType": "string",
          "name": "",
          "type": "string"
        }
      ],
      "stateMutability": "view",
      "type": "function"
    },
    {
      "inputs": [],
      "name": "token",
      "outputs": [
        {
          "internalType": "contract IERC20",
          "name": "",
          "type": "address"
        }
      ],
      "stateMutability": "view",
      "type": "function"
    },
    {
      "inputs": [
        {
          "internalType": "uint256",
          "name": "tokenId",
          "type": "uint256"
        }
      ],
      "name": "tokenURI",
      "outputs": [
        {
          "internalType": "string",
          "name": "",
          "type": "string"
        }
      ],
      "stateMutability": "view",
      "type": "function"
    },
    {
      "inputs": [
        {
          "internalType": "address",
          "name": "from",
          "type": "address"
        },
        {
          "internalType": "address",
          "name": "to",
          "type": "address"
        },
        {
          "internalType": "uint256",
          "name": "tokenId",
          "type": "uint256"
        }
      ],
      "name": "transferFrom",
      "outputs": [],
      "stateMutability": "nonpayable",
      "type": "function"
    },
    {
      "inputs": [
        {
          "internalType": "string",
          "name": "_uri",
          "type": "string"
        }
      ],
      "name": "filePatent",
      "outputs": [],
      "stateMutability": "nonpayable",
      "type": "function"
    },
    {
      "inputs": [
        {
          "internalType": "uint256",
          "name": "patentId",
          "type": "uint256"
        },
        {
          "internalType": "uint256",
          "name": "price",
          "type": "uint256"
        }
      ],
      "name": "setPatentForSale",
      "outputs": [],
      "stateMutability": "nonpayable",
      "type": "function"
    },
    {
      "inputs": [
        {
          "internalType": "uint256",
          "name": "patentId",
          "type": "uint256"
        }
      ],
      "name": "setPatentNotForSale",
      "outputs": [],
      "stateMutability": "nonpayable",
      "type": "function"
    },
    {
      "inputs": [
        {
          "internalType": "uint256",
          "name": "patentId",
          "type": "uint256"
        }
      ],
      "name": "buyPatent",
      "outputs": [],
      "stateMutability": "nonpayable",
      "type": "function"
    },
    {
      "inputs": [],
      "name": "getTokenCount",
      "outputs": [
        {
          "internalType": "uint256",
          "name": "",
          "type": "uint256"
        }
      ],
      "stateMutability": "nonpayable",
      "type": "function"
    },
    {
      "inputs": [
        {
          "internalType": "uint256",
          "name": "patentId",
          "type": "uint256"
        }
      ],
      "name": "getPatentprice",
      "outputs": [
        {
          "internalType": "uint256",
          "name": "",
          "type": "uint256"
        }
      ],
      "stateMutability": "nonpayable",
      "type": "function"
    }
  ],
  "bytecode": "0x608060405234801562000010575f80fd5b506040516200346d3803806200346d83398181016040528101906200003691906200017a565b6040518060400160405280600981526020017f506174656e744e465400000000000000000000000000000000000000000000008152506040518060400160405280600581526020017f50544e4654000000000000000000000000000000000000000000000000000000815250815f9081620000b291906200040e565b508060019081620000c491906200040e565b5050508060075f6101000a81548173ffffffffffffffffffffffffffffffffffffffff021916908373ffffffffffffffffffffffffffffffffffffffff1602179055505f60088190555050620004f2565b5f80fd5b5f73ffffffffffffffffffffffffffffffffffffffff82169050919050565b5f620001448262000119565b9050919050565b620001568162000138565b811462000161575f80fd5b50565b5f8151905062000174816200014b565b92915050565b5f6020828403121562000192576200019162000115565b5b5f620001a18482850162000164565b91505092915050565b5f81519050919050565b7f4e487b71000000000000000000000000000000000000000000000000000000005f52604160045260245ffd5b7f4e487b71000000000000000000000000000000000000000000000000000000005f52602260045260245ffd5b5f60028204905060018216806200022657607f821691505b6020821081036200023c576200023b620001e1565b5b50919050565b5f819050815f5260205f209050919050565b5f6020601f8301049050919050565b5f82821b905092915050565b5f60088302620002a07fffffffffffffffffffffffffffffffffffffffffffffffffffffffffffffffff8262000263565b620002ac868362000263565b95508019841693508086168417925050509392505050565b5f819050919050565b5f819050919050565b5f620002f6620002f0620002ea84620002c4565b620002cd565b620002c4565b9050919050565b5f819050919050565b6200031183620002d6565b620003296200032082620002fd565b8484546200026f565b825550505050565b5f90565b6200033f62000331565b6200034c81848462000306565b505050565b5b818110156200037357620003675f8262000335565b60018101905062000352565b5050565b601f821115620003c2576200038c8162000242565b620003978462000254565b81016020851015620003a7578190505b620003bf620003b68562000254565b83018262000351565b50505b505050565b5f82821c905092915050565b5f620003e45f1984600802620003c7565b1980831691505092915050565b5f620003fe8383620003d3565b9150826002028217905092915050565b6200041982620001aa565b67ffffffffffffffff811115620004355762000434620001b4565b5b6200044182546200020e565b6200044e82828562000377565b5f60209050601f83116001811462000484575f84156200046f578287015190505b6200047b8582620003f1565b865550620004ea565b601f198416620004948662000242565b5f5b82811015620004bd5784890151825560018201915060208501945060208101905062000496565b86831015620004dd5784890151620004d9601f891682620003d3565b8355505b6001600288020188555050505b505050505050565b612f6d80620005005f395ff3fe608060405234801561000f575f80fd5b5060043610610135575f3560e01c806370a08231116100b6578063a22cb4651161007a578063a22cb46514610347578063b88d4fde14610363578063c87b56dd1461037f578063e985e9c5146103af578063f422bc68146103df578063fc0c546a1461041257610135565b806370a082311461028f57806378a89567146102bf5780638a99f6fb146102dd57806395d89b41146102f95780639bee1f941461031757610135565b8063226e5952116100fd578063226e5952146101ef57806323b872dd1461020b57806331ad661e1461022757806342842e0e146102435780636352211e1461025f57610135565b806301ffc9a71461013957806306fdde0314610169578063081812fc14610187578063095ea7b3146101b757806313b356ad146101d3575b5f80fd5b610153600480360381019061014e9190611fc3565b610430565b6040516101609190612008565b60405180910390f35b610171610490565b60405161017e91906120ab565b60405180910390f35b6101a1600480360381019061019c91906120fe565b61051f565b6040516101ae9190612168565b60405180910390f35b6101d160048036038101906101cc91906121ab565b61053a565b005b6101ed60048036038101906101e891906120fe565b610550565b005b61020960048036038101906102049190612315565b6107cc565b005b6102256004803603810190610220919061235c565b610994565b005b610241600480360381019061023c91906123ac565b610a93565b005b61025d6004803603810190610258919061235c565b610ba7565b005b610279600480360381019061027491906120fe565b610bc6565b6040516102869190612168565b60405180910390f35b6102a960048036038101906102a491906123ea565b610bd7565b6040516102b69190612424565b60405180910390f35b6102c7610c8d565b6040516102d49190612424565b60405180910390f35b6102f760048036038101906102f291906120fe565b610c96565b005b610301610da8565b60405161030e91906120ab565b60405180910390f35b610331600480360381019061032c91906120fe565b610e38565b60405161033e9190612424565b60405180910390f35b610361600480360381019061035c9190612467565b610e55565b005b61037d60048036038101906103789190612543565b610e6b565b005b610399600480360381019061039491906120fe565b610e88565b6040516103a691906120ab565b60405180910390f35b6103c960048036038101906103c491906125c3565b610f93565b6040516103d69190612008565b60405180910390f35b6103f960048036038101906103f491906120fe565b611021565b6040516104099493929190612601565b60405180910390f35b61041a611059565b604051610427919061269f565b60405180910390f35b5f634906490660e01b7bffffffffffffffffffffffffffffffffffffffffffffffffffffffff1916827bffffffffffffffffffffffffffffffffffffffffffffffffffffffff1916148061048957506104888261107e565b5b9050919050565b60605f805461049e906126e5565b80601f01602080910402602001604051908101604052809291908181526020018280546104ca906126e5565b80156105155780601f106104ec57610100808354040283529160200191610515565b820191905f5260205f20905b8154815290600101906020018083116104f857829003601f168201915b5050505050905090565b5f6105298261115f565b50610533826111e5565b9050919050565b61054c828261054761121e565b611225565b5050565b5f73ffffffffffffffffffffffffffffffffffffffff1661057082611237565b73ffffffffffffffffffffffffffffffffffffffff16036105c6576040517f08c379a00000000000000000000000000000000000000000000000000000000081526004016105bd9061275f565b60405180910390fd5b60095f8281526020019081526020015f205f015f9054906101000a900460ff16610625576040517f08c379a000000000000000000000000000000000000000000000000000000000815260040161061c906127c7565b60405180910390fd5b60095f8281526020019081526020015f2060030154421061067b576040517f08c379a00000000000000000000000000000000000000000000000000000000081526004016106729061282f565b60405180910390fd5b60075f9054906101000a900473ffffffffffffffffffffffffffffffffffffffff1673ffffffffffffffffffffffffffffffffffffffff166323b872dd336106c284611237565b60095f8681526020019081526020015f20600101546040518463ffffffff1660e01b81526004016106f59392919061284d565b6020604051808303815f875af1158015610711573d5f803e3d5ffd5b505050506040513d601f19601f820116820180604052508101906107359190612896565b610774576040517f08c379a000000000000000000000000000000000000000000000000000000000815260040161076b90612931565b60405180910390fd5b807fbc59543ce757cc7e4527a51c4c9d6e96e88a233bda92dc16607b63fd9599ade061079f83611237565b336040516107ae92919061294f565b60405180910390a26107c96107c282611237565b3383610994565b50565b60075f9054906101000a900473ffffffffffffffffffffffffffffffffffffffff1673ffffffffffffffffffffffffffffffffffffffff16637f5db3e8336040518263ffffffff1660e01b81526004016108269190612168565b6020604051808303815f875af1158015610842573d5f803e3d5ffd5b505050506040513d601f19601f820116820180604052508101906108669190612896565b6108a5576040517f08c379a000000000000000000000000000000000000000000000000000000000815260040161089c906129c0565b60405180910390fd5b60405180608001604052805f151581526020015f81526020014281526020016325980600426108d49190612a0b565b81525060095f60085481526020019081526020015f205f820151815f015f6101000a81548160ff02191690831515021790555060208201518160010155604082015181600201556060820151816003015590505061093433600854611270565b6109406008548261128d565b6008547fe035201264bc301f014898837139831792b61fd25d2a44511eaa8bac73575e8a336040516109729190612168565b60405180910390a260085f81548092919061098c90612a3e565b919050555050565b5f73ffffffffffffffffffffffffffffffffffffffff168273ffffffffffffffffffffffffffffffffffffffff1603610a04575f6040517f64a0ae920000000000000000000000000000000000000000000000000000000081526004016109fb9190612168565b60405180910390fd5b5f610a178383610a1261121e565b6112e7565b90508373ffffffffffffffffffffffffffffffffffffffff168173ffffffffffffffffffffffffffffffffffffffff1614610a8d578382826040517f64283d7b000000000000000000000000000000000000000000000000000000008152600401610a8493929190612a85565b60405180910390fd5b50505050565b3373ffffffffffffffffffffffffffffffffffffffff16610ab383611237565b73ffffffffffffffffffffffffffffffffffffffff1614610b09576040517f08c379a0000000000000000000000000000000000000000000000000000000008152600401610b0090612b2a565b60405180910390fd5b60095f8381526020019081526020015f20600301544210610b5f576040517f08c379a0000000000000000000000000000000000000000000000000000000008152600401610b569061282f565b60405180910390fd5b8060095f8481526020019081526020015f2060010181905550600160095f8481526020019081526020015f205f015f6101000a81548160ff0219169083151502179055505050565b610bc183838360405180602001604052805f815250610e6b565b505050565b5f610bd08261115f565b9050919050565b5f8073ffffffffffffffffffffffffffffffffffffffff168273ffffffffffffffffffffffffffffffffffffffff1603610c48575f6040517f89c62b64000000000000000000000000000000000000000000000000000000008152600401610c3f9190612168565b60405180910390fd5b60035f8373ffffffffffffffffffffffffffffffffffffffff1673ffffffffffffffffffffffffffffffffffffffff1681526020019081526020015f20549050919050565b5f600854905090565b3373ffffffffffffffffffffffffffffffffffffffff16610cb682611237565b73ffffffffffffffffffffffffffffffffffffffff1614610d0c576040517f08c379a0000000000000000000000000000000000000000000000000000000008152600401610d0390612b2a565b60405180910390fd5b60095f8281526020019081526020015f20600301544210610d62576040517f08c379a0000000000000000000000000000000000000000000000000000000008152600401610d599061282f565b60405180910390fd5b5f60095f8381526020019081526020015f20600101819055505f60095f8381526020019081526020015f205f015f6101000a81548160ff02191690831515021790555050565b606060018054610db7906126e5565b80601f0160208091040260200160405190810160405280929190818152602001828054610de3906126e5565b8015610e2e5780601f10610e0557610100808354040283529160200191610e2e565b820191905f5260205f20905b815481529060010190602001808311610e1157829003601f168201915b5050505050905090565b5f60095f8381526020019081526020015f20600101549050919050565b610e67610e6061121e565b83836114f2565b5050565b610e76848484610994565b610e828484848461165b565b50505050565b6060610e938261115f565b505f60065f8481526020019081526020015f208054610eb1906126e5565b80601f0160208091040260200160405190810160405280929190818152602001828054610edd906126e5565b8015610f285780601f10610eff57610100808354040283529160200191610f28565b820191905f5260205f20905b815481529060010190602001808311610f0b57829003601f168201915b505050505090505f610f3861180d565b90505f815103610f4c578192505050610f8e565b5f82511115610f80578082604051602001610f68929190612b82565b60405160208183030381529060405292505050610f8e565b610f8984611823565b925050505b919050565b5f60055f8473ffffffffffffffffffffffffffffffffffffffff1673ffffffffffffffffffffffffffffffffffffffff1681526020019081526020015f205f8373ffffffffffffffffffffffffffffffffffffffff1673ffffffffffffffffffffffffffffffffffffffff1681526020019081526020015f205f9054906101000a900460ff16905092915050565b6009602052805f5260405f205f91509050805f015f9054906101000a900460ff16908060010154908060020154908060030154905084565b60075f9054906101000a900473ffffffffffffffffffffffffffffffffffffffff1681565b5f7f80ac58cd000000000000000000000000000000000000000000000000000000007bffffffffffffffffffffffffffffffffffffffffffffffffffffffff1916827bffffffffffffffffffffffffffffffffffffffffffffffffffffffff1916148061114857507f5b5e139f000000000000000000000000000000000000000000000000000000007bffffffffffffffffffffffffffffffffffffffffffffffffffffffff1916827bffffffffffffffffffffffffffffffffffffffffffffffffffffffff1916145b80611158575061115782611889565b5b9050919050565b5f8061116a83611237565b90505f73ffffffffffffffffffffffffffffffffffffffff168173ffffffffffffffffffffffffffffffffffffffff16036111dc57826040517f7e2732890000000000000000000000000000000000000000000000000000000081526004016111d39190612424565b60405180910390fd5b80915050919050565b5f60045f8381526020019081526020015f205f9054906101000a900473ffffffffffffffffffffffffffffffffffffffff169050919050565b5f33905090565b61123283838360016118f2565b505050565b5f60025f8381526020019081526020015f205f9054906101000a900473ffffffffffffffffffffffffffffffffffffffff169050919050565b611289828260405180602001604052805f815250611ab1565b5050565b8060065f8481526020019081526020015f2090816112ab9190612d39565b507ff8e1a15aba9398e019f0b49df1a4fde98ee17ae345cb5f6b5e2c27f5033e8ce7826040516112db9190612424565b60405180910390a15050565b5f806112f284611237565b90505f73ffffffffffffffffffffffffffffffffffffffff168373ffffffffffffffffffffffffffffffffffffffff161461133357611332818486611acc565b5b5f73ffffffffffffffffffffffffffffffffffffffff168173ffffffffffffffffffffffffffffffffffffffff16146113be576113725f855f806118f2565b600160035f8373ffffffffffffffffffffffffffffffffffffffff1673ffffffffffffffffffffffffffffffffffffffff1681526020019081526020015f205f82825403925050819055505b5f73ffffffffffffffffffffffffffffffffffffffff168573ffffffffffffffffffffffffffffffffffffffff161461143d57600160035f8773ffffffffffffffffffffffffffffffffffffffff1673ffffffffffffffffffffffffffffffffffffffff1681526020019081526020015f205f82825401925050819055505b8460025f8681526020019081526020015f205f6101000a81548173ffffffffffffffffffffffffffffffffffffffff021916908373ffffffffffffffffffffffffffffffffffffffff160217905550838573ffffffffffffffffffffffffffffffffffffffff168273ffffffffffffffffffffffffffffffffffffffff167fddf252ad1be2c89b69c2b068fc378daa952ba7f163c4a11628f55a4df523b3ef60405160405180910390a4809150509392505050565b5f73ffffffffffffffffffffffffffffffffffffffff168273ffffffffffffffffffffffffffffffffffffffff160361156257816040517f5b08ba180000000000000000000000000000000000000000000000000000000081526004016115599190612168565b60405180910390fd5b8060055f8573ffffffffffffffffffffffffffffffffffffffff1673ffffffffffffffffffffffffffffffffffffffff1681526020019081526020015f205f8473ffffffffffffffffffffffffffffffffffffffff1673ffffffffffffffffffffffffffffffffffffffff1681526020019081526020015f205f6101000a81548160ff0219169083151502179055508173ffffffffffffffffffffffffffffffffffffffff168373ffffffffffffffffffffffffffffffffffffffff167f17307eab39ab6107e8899845ad3d59bd9653f200f220920489ca2b5937696c318360405161164e9190612008565b60405180910390a3505050565b5f8373ffffffffffffffffffffffffffffffffffffffff163b1115611807578273ffffffffffffffffffffffffffffffffffffffff1663150b7a0261169e61121e565b8685856040518563ffffffff1660e01b81526004016116c09493929190612e5a565b6020604051808303815f875af19250505080156116fb57506040513d601f19601f820116820180604052508101906116f89190612eb8565b60015b61177c573d805f8114611729576040519150601f19603f3d011682016040523d82523d5f602084013e61172e565b606091505b505f81510361177457836040517f64a0ae9200000000000000000000000000000000000000000000000000000000815260040161176b9190612168565b60405180910390fd5b805181602001fd5b63150b7a0260e01b7bffffffffffffffffffffffffffffffffffffffffffffffffffffffff1916817bffffffffffffffffffffffffffffffffffffffffffffffffffffffff19161461180557836040517f64a0ae920000000000000000000000000000000000000000000000000000000081526004016117fc9190612168565b60405180910390fd5b505b50505050565b606060405180602001604052805f815250905090565b606061182e8261115f565b505f61183861180d565b90505f8151116118565760405180602001604052805f815250611881565b8061186084611b8f565b604051602001611871929190612b82565b6040516020818303038152906040525b915050919050565b5f7f01ffc9a7000000000000000000000000000000000000000000000000000000007bffffffffffffffffffffffffffffffffffffffffffffffffffffffff1916827bffffffffffffffffffffffffffffffffffffffffffffffffffffffff1916149050919050565b808061192a57505f73ffffffffffffffffffffffffffffffffffffffff168273ffffffffffffffffffffffffffffffffffffffff1614155b15611a5c575f6119398461115f565b90505f73ffffffffffffffffffffffffffffffffffffffff168373ffffffffffffffffffffffffffffffffffffffff16141580156119a357508273ffffffffffffffffffffffffffffffffffffffff168173ffffffffffffffffffffffffffffffffffffffff1614155b80156119b657506119b48184610f93565b155b156119f857826040517fa9fbf51f0000000000000000000000000000000000000000000000000000000081526004016119ef9190612168565b60405180910390fd5b8115611a5a57838573ffffffffffffffffffffffffffffffffffffffff168273ffffffffffffffffffffffffffffffffffffffff167f8c5be1e5ebec7d5bd14f71427d1e84f3dd0314c0f7b2291e5b200ac8c7c3b92560405160405180910390a45b505b8360045f8581526020019081526020015f205f6101000a81548173ffffffffffffffffffffffffffffffffffffffff021916908373ffffffffffffffffffffffffffffffffffffffff16021790555050505050565b611abb8383611c59565b611ac75f84848461165b565b505050565b611ad7838383611d4c565b611b8a575f73ffffffffffffffffffffffffffffffffffffffff168373ffffffffffffffffffffffffffffffffffffffff1603611b4b57806040517f7e273289000000000000000000000000000000000000000000000000000000008152600401611b429190612424565b60405180910390fd5b81816040517f177e802f000000000000000000000000000000000000000000000000000000008152600401611b81929190612ee3565b60405180910390fd5b505050565b60605f6001611b9d84611e0c565b0190505f8167ffffffffffffffff811115611bbb57611bba6121f1565b5b6040519080825280601f01601f191660200182016040528015611bed5781602001600182028036833780820191505090505b5090505f82602001820190505b600115611c4e578080600190039150507f3031323334353637383961626364656600000000000000000000000000000000600a86061a8153600a8581611c4357611c42612f0a565b5b0494505f8503611bfa575b819350505050919050565b5f73ffffffffffffffffffffffffffffffffffffffff168273ffffffffffffffffffffffffffffffffffffffff1603611cc9575f6040517f64a0ae92000000000000000000000000000000000000000000000000000000008152600401611cc09190612168565b60405180910390fd5b5f611cd583835f6112e7565b90505f73ffffffffffffffffffffffffffffffffffffffff168173ffffffffffffffffffffffffffffffffffffffff1614611d47575f6040517f73c6ac6e000000000000000000000000000000000000000000000000000000008152600401611d3e9190612168565b60405180910390fd5b505050565b5f8073ffffffffffffffffffffffffffffffffffffffff168373ffffffffffffffffffffffffffffffffffffffff1614158015611e0357508273ffffffffffffffffffffffffffffffffffffffff168473ffffffffffffffffffffffffffffffffffffffff161480611dc45750611dc38484610f93565b5b80611e0257508273ffffffffffffffffffffffffffffffffffffffff16611dea836111e5565b73ffffffffffffffffffffffffffffffffffffffff16145b5b90509392505050565b5f805f90507a184f03e93ff9f4daa797ed6e38ed64bf6a1f0100000000000000008310611e68577a184f03e93ff9f4daa797ed6e38ed64bf6a1f0100000000000000008381611e5e57611e5d612f0a565b5b0492506040810190505b6d04ee2d6d415b85acef81000000008310611ea5576d04ee2d6d415b85acef81000000008381611e9b57611e9a612f0a565b5b0492506020810190505b662386f26fc100008310611ed457662386f26fc100008381611eca57611ec9612f0a565b5b0492506010810190505b6305f5e1008310611efd576305f5e1008381611ef357611ef2612f0a565b5b0492506008810190505b6127108310611f22576127108381611f1857611f17612f0a565b5b0492506004810190505b60648310611f455760648381611f3b57611f3a612f0a565b5b0492506002810190505b600a8310611f54576001810190505b80915050919050565b5f604051905090565b5f80fd5b5f80fd5b5f7fffffffff0000000000000000000000000000000000000000000000000000000082169050919050565b611fa281611f6e565b8114611fac575f80fd5b50565b5f81359050611fbd81611f99565b92915050565b5f60208284031215611fd857611fd7611f66565b5b5f611fe584828501611faf565b91505092915050565b5f8115159050919050565b61200281611fee565b82525050565b5f60208201905061201b5f830184611ff9565b92915050565b5f81519050919050565b5f82825260208201905092915050565b5f5b8381101561205857808201518184015260208101905061203d565b5f8484015250505050565b5f601f19601f8301169050919050565b5f61207d82612021565b612087818561202b565b935061209781856020860161203b565b6120a081612063565b840191505092915050565b5f6020820190508181035f8301526120c38184612073565b905092915050565b5f819050919050565b6120dd816120cb565b81146120e7575f80fd5b50565b5f813590506120f8816120d4565b92915050565b5f6020828403121561211357612112611f66565b5b5f612120848285016120ea565b91505092915050565b5f73ffffffffffffffffffffffffffffffffffffffff82169050919050565b5f61215282612129565b9050919050565b61216281612148565b82525050565b5f60208201905061217b5f830184612159565b92915050565b61218a81612148565b8114612194575f80fd5b50565b5f813590506121a581612181565b92915050565b5f80604083850312156121c1576121c0611f66565b5b5f6121ce85828601612197565b92505060206121df858286016120ea565b9150509250929050565b5f80fd5b5f80fd5b7f4e487b71000000000000000000000000000000000000000000000000000000005f52604160045260245ffd5b61222782612063565b810181811067ffffffffffffffff82111715612246576122456121f1565b5b80604052505050565b5f612258611f5d565b9050612264828261221e565b919050565b5f67ffffffffffffffff821115612283576122826121f1565b5b61228c82612063565b9050602081019050919050565b828183375f83830152505050565b5f6122b96122b484612269565b61224f565b9050828152602081018484840111156122d5576122d46121ed565b5b6122e0848285612299565b509392505050565b5f82601f8301126122fc576122fb6121e9565b5b813561230c8482602086016122a7565b91505092915050565b5f6020828403121561232a57612329611f66565b5b5f82013567ffffffffffffffff81111561234757612346611f6a565b5b612353848285016122e8565b91505092915050565b5f805f6060848603121561237357612372611f66565b5b5f61238086828701612197565b935050602061239186828701612197565b92505060406123a2868287016120ea565b9150509250925092565b5f80604083850312156123c2576123c1611f66565b5b5f6123cf858286016120ea565b92505060206123e0858286016120ea565b9150509250929050565b5f602082840312156123ff576123fe611f66565b5b5f61240c84828501612197565b91505092915050565b61241e816120cb565b82525050565b5f6020820190506124375f830184612415565b92915050565b61244681611fee565b8114612450575f80fd5b50565b5f813590506124618161243d565b92915050565b5f806040838503121561247d5761247c611f66565b5b5f61248a85828601612197565b925050602061249b85828601612453565b9150509250929050565b5f67ffffffffffffffff8211156124bf576124be6121f1565b5b6124c882612063565b9050602081019050919050565b5f6124e76124e2846124a5565b61224f565b905082815260208101848484011115612503576125026121ed565b5b61250e848285612299565b509392505050565b5f82601f83011261252a576125296121e9565b5b813561253a8482602086016124d5565b91505092915050565b5f805f806080858703121561255b5761255a611f66565b5b5f61256887828801612197565b945050602061257987828801612197565b935050604061258a878288016120ea565b925050606085013567ffffffffffffffff8111156125ab576125aa611f6a565b5b6125b787828801612516565b91505092959194509250565b5f80604083850312156125d9576125d8611f66565b5b5f6125e685828601612197565b92505060206125f785828601612197565b9150509250929050565b5f6080820190506126145f830187611ff9565b6126216020830186612415565b61262e6040830185612415565b61263b6060830184612415565b95945050505050565b5f819050919050565b5f61266761266261265d84612129565b612644565b612129565b9050919050565b5f6126788261264d565b9050919050565b5f6126898261266e565b9050919050565b6126998161267f565b82525050565b5f6020820190506126b25f830184612690565b92915050565b7f4e487b71000000000000000000000000000000000000000000000000000000005f52602260045260245ffd5b5f60028204905060018216806126fc57607f821691505b60208210810361270f5761270e6126b8565b5b50919050565b7f54686520706174656e7420646f6573206e6f74206578697374000000000000005f82015250565b5f61274960198361202b565b915061275482612715565b602082019050919050565b5f6020820190508181035f8301526127768161273d565b9050919050565b7f54686520706174656e74206973206e6f7420696e2073616c65000000000000005f82015250565b5f6127b160198361202b565b91506127bc8261277d565b602082019050919050565b5f6020820190508181035f8301526127de816127a5565b9050919050565b7f54686520706174656e74206861732065787069726564000000000000000000005f82015250565b5f61281960168361202b565b9150612824826127e5565b602082019050919050565b5f6020820190508181035f8301526128468161280d565b9050919050565b5f6060820190506128605f830186612159565b61286d6020830185612159565b61287a6040830184612415565b949350505050565b5f815190506128908161243d565b92915050565b5f602082840312156128ab576128aa611f66565b5b5f6128b884828501612882565b91505092915050565b7f596f752068617665206e6f7420656e6f7567682050544e5420746f20627579205f8201527f74686520706174656e7400000000000000000000000000000000000000000000602082015250565b5f61291b602a8361202b565b9150612926826128c1565b604082019050919050565b5f6020820190508181035f8301526129488161290f565b9050919050565b5f6040820190506129625f830185612159565b61296f6020830184612159565b9392505050565b7f46696c696e6720666565207061796d656e74206661696c6564000000000000005f82015250565b5f6129aa60198361202b565b91506129b582612976565b602082019050919050565b5f6020820190508181035f8301526129d78161299e565b9050919050565b7f4e487b71000000000000000000000000000000000000000000000000000000005f52601160045260245ffd5b5f612a15826120cb565b9150612a20836120cb565b9250828201905080821115612a3857612a376129de565b5b92915050565b5f612a48826120cb565b91507fffffffffffffffffffffffffffffffffffffffffffffffffffffffffffffffff8203612a7a57612a796129de565b5b600182019050919050565b5f606082019050612a985f830186612159565b612aa56020830185612415565b612ab26040830184612159565b949350505050565b7f596f7520617265206e6f7420746865206f776e6572206f6620746865207061745f8201527f656e740000000000000000000000000000000000000000000000000000000000602082015250565b5f612b1460238361202b565b9150612b1f82612aba565b604082019050919050565b5f6020820190508181035f830152612b4181612b08565b9050919050565b5f81905092915050565b5f612b5c82612021565b612b668185612b48565b9350612b7681856020860161203b565b80840191505092915050565b5f612b8d8285612b52565b9150612b998284612b52565b91508190509392505050565b5f819050815f5260205f209050919050565b5f6020601f8301049050919050565b5f82821b905092915050565b5f60088302612c017fffffffffffffffffffffffffffffffffffffffffffffffffffffffffffffffff82612bc6565b612c0b8683612bc6565b95508019841693508086168417925050509392505050565b5f612c3d612c38612c33846120cb565b612644565b6120cb565b9050919050565b5f819050919050565b612c5683612c23565b612c6a612c6282612c44565b848454612bd2565b825550505050565b5f90565b612c7e612c72565b612c89818484612c4d565b505050565b5b81811015612cac57612ca15f82612c76565b600181019050612c8f565b5050565b601f821115612cf157612cc281612ba5565b612ccb84612bb7565b81016020851015612cda578190505b612cee612ce685612bb7565b830182612c8e565b50505b505050565b5f82821c905092915050565b5f612d115f1984600802612cf6565b1980831691505092915050565b5f612d298383612d02565b9150826002028217905092915050565b612d4282612021565b67ffffffffffffffff811115612d5b57612d5a6121f1565b5b612d6582546126e5565b612d70828285612cb0565b5f60209050601f831160018114612da1575f8415612d8f578287015190505b612d998582612d1e565b865550612e00565b601f198416612daf86612ba5565b5f5b82811015612dd657848901518255600182019150602085019450602081019050612db1565b86831015612df35784890151612def601f891682612d02565b8355505b6001600288020188555050505b505050505050565b5f81519050919050565b5f82825260208201905092915050565b5f612e2c82612e08565b612e368185612e12565b9350612e4681856020860161203b565b612e4f81612063565b840191505092915050565b5f608082019050612e6d5f830187612159565b612e7a6020830186612159565b612e876040830185612415565b8181036060830152612e998184612e22565b905095945050505050565b5f81519050612eb281611f99565b92915050565b5f60208284031215612ecd57612ecc611f66565b5b5f612eda84828501612ea4565b91505092915050565b5f604082019050612ef65f830185612159565b612f036020830184612415565b9392505050565b7f4e487b71000000000000000000000000000000000000000000000000000000005f52601260045260245ffdfea2646970667358221220af0f45e61215458c814c4332d3082769b673e3584635d7c5a263ddb8d5377d6164736f6c63430008140033",
  "immutableReferences": {},
  "source": "// SPDX-License-Identifier: MIT\r\npragma solidity ^0.8.19;\r\n\r\nimport \"@openzeppelin/contracts/token/ERC721/extensions/ERC721URIStorage.sol\";\r\n\r\n\r\ninterface IERC20{\r\n    function transferFrom(address sender, address recipient, uint amount) external returns (bool);\r\n    function balanceOf(address account) external view returns(uint);\r\n    function payFilingFee(address sender) external returns(bool);\r\n}\r\n\r\n\r\n/// @title PatentNFT contract\r\n/// @author Carolina Proietti, Edoardo Giuggioloni, Paolo Marchignoli, Ruben Seror \r\n/// @notice You can use this contract to file patent, buy and sell associated NFTs\r\ncontract PatentNFT is ERC721URIStorage{\r\n\r\n    // Struttura dei brevetti\r\n    struct Patent {\r\n        bool forSale; //brevetto in vendita (s/n)\r\n        uint price; //prezzo brevetto (0 se non  in vendita)\r\n        uint timestamp;//data deposito brevetto\r\n        uint deadline;//scadenza brevetto\r\n    }\r\n\r\n    IERC20 public token;\r\n    uint private patentCounter;\r\n    mapping(uint => Patent) public patents;\r\n    uint filingPrice;\r\n    \r\n\r\n    //evento deposito\r\n    event PatentFiled(uint indexed patentId, address owner);\r\n    //evento cessione\r\n    event PatentAssignment(uint indexed patentId, address from, address to);\r\n\r\n\r\n    constructor(address tokenAddress) ERC721(\"PatentNFT\",\"PTNFT\"){\r\n        token = IERC20(tokenAddress);\r\n        patentCounter = 0;\r\n    }\r\n\r\n    function filePatent(string memory _uri) public{\r\n        require(token.payFilingFee(msg.sender),'Filing fee payment failed');\r\n        patents[patentCounter] = Patent({ \r\n            forSale: false, \r\n            price:0,\r\n            timestamp: block.timestamp,\r\n            deadline: block.timestamp + (20 * 365 days)});\r\n        _safeMint(msg.sender, patentCounter);\r\n        _setTokenURI(patentCounter, _uri);\r\n        emit PatentFiled(patentCounter, msg.sender);\r\n        patentCounter++;\r\n    }\r\n\r\n    function setPatentForSale(uint patentId, uint price) public {\r\n        require(_ownerOf(patentId) == msg.sender,'You are not the owner of the patent');\r\n        require(block.timestamp < patents[patentId].deadline,'The patent has expired');\r\n        patents[patentId].price = price;\r\n        patents[patentId].forSale = true;\r\n    }\r\n\r\n    function setPatentNotForSale(uint patentId) public {\r\n        require(_ownerOf(patentId) == msg.sender,'You are not the owner of the patent');\r\n        require(block.timestamp < patents[patentId].deadline,'The patent has expired');\r\n        patents[patentId].price = 0;\r\n        patents[patentId].forSale = false;    \r\n    }\r\n\r\n    function buyPatent(uint patentId) public {\r\n        require(_ownerOf(patentId) != address(0),'The patent does not exist');\r\n        require(patents[patentId].forSale,'The patent is not in sale');\r\n        require(block.timestamp < patents[patentId].deadline,'The patent has expired');\r\n        require(token.transferFrom(msg.sender, _ownerOf(patentId), patents[patentId].price),'You have not enough PTNT to buy the patent');\r\n        emit PatentAssignment(patentId, _ownerOf(patentId), msg.sender);\r\n        transferFrom(_ownerOf(patentId), msg.sender, patentId);\r\n    }\r\n    \r\n    function getTokenCount() public returns(uint){\r\n        return patentCounter;\r\n    }\r\n\r\n\r\n    function getPatentprice(uint patentId) public returns(uint){\r\n        return patents[patentId].price;\r\n    }\r\n\r\n\r\n}",
  "sourcePath": "C:\\Users\\nosen\\Documents\\PatentLink - Blockchain project\\contracts\\PatentNFT.sol",
  "compiler": {
    "name": "solc",
    "version": "0.8.20+commit.a1b79de6.Emscripten.clang"
  },
  "schemaVersion": "3.4.16",
  "updatedAt": "2024-01-05T17:24:32.980Z",
  "devdoc": {
    "author": "Carolina Proietti, Edoardo Giuggioloni, Paolo Marchignoli, Ruben Seror ",
    "errors": {
      "ERC721IncorrectOwner(address,uint256,address)": [
        {
          "details": "Indicates an error related to the ownership over a particular token. Used in transfers.",
          "params": {
            "owner": "Address of the current owner of a token.",
            "sender": "Address whose tokens are being transferred.",
            "tokenId": "Identifier number of a token."
          }
        }
      ],
      "ERC721InsufficientApproval(address,uint256)": [
        {
          "details": "Indicates a failure with the `operator`s approval. Used in transfers.",
          "params": {
            "operator": "Address that may be allowed to operate on tokens without being their owner.",
            "tokenId": "Identifier number of a token."
          }
        }
      ],
      "ERC721InvalidApprover(address)": [
        {
          "details": "Indicates a failure with the `approver` of a token to be approved. Used in approvals.",
          "params": {
            "approver": "Address initiating an approval operation."
          }
        }
      ],
      "ERC721InvalidOperator(address)": [
        {
          "details": "Indicates a failure with the `operator` to be approved. Used in approvals.",
          "params": {
            "operator": "Address that may be allowed to operate on tokens without being their owner."
          }
        }
      ],
      "ERC721InvalidOwner(address)": [
        {
          "details": "Indicates that an address can't be an owner. For example, `address(0)` is a forbidden owner in EIP-20. Used in balance queries.",
          "params": {
            "owner": "Address of the current owner of a token."
          }
        }
      ],
      "ERC721InvalidReceiver(address)": [
        {
          "details": "Indicates a failure with the token `receiver`. Used in transfers.",
          "params": {
            "receiver": "Address to which tokens are being transferred."
          }
        }
      ],
      "ERC721InvalidSender(address)": [
        {
          "details": "Indicates a failure with the token `sender`. Used in transfers.",
          "params": {
            "sender": "Address whose tokens are being transferred."
          }
        }
      ],
      "ERC721NonexistentToken(uint256)": [
        {
          "details": "Indicates a `tokenId` whose `owner` is the zero address.",
          "params": {
            "tokenId": "Identifier number of a token."
          }
        }
      ]
    },
    "events": {
      "Approval(address,address,uint256)": {
        "details": "Emitted when `owner` enables `approved` to manage the `tokenId` token."
      },
      "ApprovalForAll(address,address,bool)": {
        "details": "Emitted when `owner` enables or disables (`approved`) `operator` to manage all of its assets."
      },
      "BatchMetadataUpdate(uint256,uint256)": {
        "details": "This event emits when the metadata of a range of tokens is changed. So that the third-party platforms such as NFT market could timely update the images and related attributes of the NFTs."
      },
      "MetadataUpdate(uint256)": {
        "details": "This event emits when the metadata of a token is changed. So that the third-party platforms such as NFT market could timely update the images and related attributes of the NFT."
      },
      "Transfer(address,address,uint256)": {
        "details": "Emitted when `tokenId` token is transferred from `from` to `to`."
      }
    },
    "kind": "dev",
    "methods": {
      "approve(address,uint256)": {
        "details": "See {IERC721-approve}."
      },
      "balanceOf(address)": {
        "details": "See {IERC721-balanceOf}."
      },
      "getApproved(uint256)": {
        "details": "See {IERC721-getApproved}."
      },
      "isApprovedForAll(address,address)": {
        "details": "See {IERC721-isApprovedForAll}."
      },
      "name()": {
        "details": "See {IERC721Metadata-name}."
      },
      "ownerOf(uint256)": {
        "details": "See {IERC721-ownerOf}."
      },
      "safeTransferFrom(address,address,uint256)": {
        "details": "See {IERC721-safeTransferFrom}."
      },
      "safeTransferFrom(address,address,uint256,bytes)": {
        "details": "See {IERC721-safeTransferFrom}."
      },
      "setApprovalForAll(address,bool)": {
        "details": "See {IERC721-setApprovalForAll}."
      },
      "supportsInterface(bytes4)": {
        "details": "See {IERC165-supportsInterface}"
      },
      "symbol()": {
        "details": "See {IERC721Metadata-symbol}."
      },
      "tokenURI(uint256)": {
        "details": "See {IERC721Metadata-tokenURI}."
      },
      "transferFrom(address,address,uint256)": {
        "details": "See {IERC721-transferFrom}."
      }
    },
    "title": "PatentNFT contract",
    "version": 1
  },
  "userdoc": {
    "kind": "user",
    "methods": {},
    "notice": "You can use this contract to file patent, buy and sell associated NFTs",
    "version": 1
  }
}